:020000040800F2
:1000000000C00020A9040008C5030008C7030008B9
:10001000C9030008CB030008CD030008000000005E
:10002000000000000000000000000000CF030008F6
:10003000D103000800000000D3030008D503000826
:10004000ED040008ED040008ED040008ED040008CC
:10005000ED040008ED040008ED040008ED040008BC
:10006000ED040008ED040008ED040008ED040008AC
:10007000ED040008ED040008ED040008ED0400089C
:10008000ED040008ED040008ED040008ED0400088C
:10009000ED040008ED040008ED040008ED0400087C
:1000A000ED040008ED040008ED040008ED0400086C
:1000B000ED040008ED040008ED040008ED0400085C
:1000C000ED040008ED040008ED040008ED0400084C
:1000D000ED040008ED040008ED040008ED0400083C
:1000E000ED040008ED040008ED040008ED0400082C
:1000F000ED040008ED040008ED040008ED0400081C
:10010000ED040008ED040008ED040008ED0400080B
:10011000ED040008ED040008ED040008ED040008FB
:10012000ED040008ED040008ED040008ED040008EB
:1001300000000000000000000000000000000000BF
:1001400000000000000000000000000000000000AF
:10015000000000000000000000000000000000009F
:10016000000000000000000000000000000000008F
:10017000000000000000000000000000000000007F
:10018000000000000000000000000000000000006F
:10019000000000000000000000000000000000005F
:1001A000000000000000000000000000000000004F
:1001B000000000000000000000000000000000003F
:1001C000000000000000000000000000000000002F
:1001D000000000000000000000000000000000001F
:0401E0005FF8E0F1F3
:1001E4000348044B834202D0034B03B118477047C2
:1001F4000400002004000020000000000548064B15
:100204001B1AD90F01EBA301491002D0034B03B110
:10021400184770470400002004000020000000007C
:1002240010B5064C237843B9FFF7DAFF044B13B13A
:100234000448AFF300800123237010BD04000020A4
:1002440000000000C005000808B5054B1BB10549B6
:100254000548AFF30080BDE80840FFF7CFBF00BFFB
:100264000000000008000020C005000882B0002340
:10027400019300932C4A136843F4803313602A4B90
:100284001B6803F400330093019B01330193009B2B
:100294001BB9019BB3F5A06FF1D1234B1B6813F479
:1002A400003F06D001230093009B012B04D002B031
:1002B400704700230093F7E71C4B1A6842F01002C2
:1002C4001A601A6822F007021A601A6842F00202E1
:1002D4001A60A3F580535A685A605A685A605A687B
:1002E40042F480625A605A6822F47C125A605A6856
:1002F40042F4E8125A601A6842F080721A600A4B9B
:100304001B6813F0007FFAD0074B5A6822F00302EF
:100314005A605A6842F002025A60034B5B6803F069
:100324000C03082BF9D1C2E7001002400020024060
:1003340008B5FFF79BFF08BD08B5104B1A6842F0DB
:1003440001021A6059680E4A0A405A601A6822F07B
:10035400847222F480321A601A6822F480221A60AD
:100364005A6822F4FE025A604FF41F029A60FFF7A3
:10037400DFFF044B4FF000629A6008BD001002409A
:100384000000FFF800ED00E000B583B00121042077
:1003940000F07AF810238DF807304FF48075ADF82B
:1003A400045003238DF80630044C01A9204600F0C4
:1003B40010F82946204600F064F8FEE700080140E2
:1003C4007047FEE7FEE7FEE7FEE7704770477047B9
:1003D400704730B5CB7803F00F02964613F0100F38
:1003E40003D091F802E04EEA020E0B78FBB10568E7
:1003F400002301E042610133072B17D801229A4000
:10040400B1F800C032EA0C0CF5D19C004FF00F0C8F
:100414000CFA04FC25EA0C050EFA04F42543CC7806
:10042400282CE7D0482CE6D10261E4E705600B886C
:10043400FF2B25D94568002303E0CC78482C1CD039
:100444000133072B1BD803F1080C012202FA0CF22A
:10045400B1F800C032EA0C0CF2D19C004FF00F0C42
:100464000CFA04FC25EA0C0C0EFA04F444EA0C051C
:10047400CC78282CE1D14261DFE70261E0E74560F6
:1004840030BD41617047000021B1054A93690343BF
:1004940093617047024A936923EA000393617047AA
:1004A40000100240002103E00A4B5B584350043122
:1004B40009480A4B42189A42F6D3094A02E000233B
:1004C40042F8043B074B9A42F9D3FFF735FFFFF795
:1004D4005BFF7047E40500080000002004000020D2
:1004E40004000020B8010020FEE70000704700BFB0
:1004F400704700BF024B13B1024800F005B87047C3
:100504000000000019050008002301461A46184699
:1005140000F014B838B5074D074C2C1BA41005D0B7
:10052400013C55F8043D9847002CF9D1BDE838400A
:1005340000F04AB8E4050008E00500082DE9F84396
:100544001B4D0646286898460F469146FFF7CEFF96
:10055400184B1C681CB3286865681F2D22DC4EB933
:100564006B1C0235636044F82570FFF7C1FF00205F
:10057400BDE8F883012304EB8501C1F88890D4F821
:100584008821AB401A43022EC4F88821C1F808819F
:10059400E6D1D4F88C211A43C4F88C21E0E7064C48
:1005A4001C60D8E7FFF7A4FF4FF0FF30E0E700BF7F
:1005B400000000202400002028000020F8B500BF1F
:1005C400F8BC08BC9E467047F8B500BFF8BC08BC30
:0405D4009E46704788
:0805D800F90400084D020008BF
:0405E00025020008E8
:0405E40020000020D3
:04000005080004A942
:00000001FF
