:020000040800F2
:1000000000C00020150E00080505000807050008BF
:10001000090500080B0500080D0500080000000098
:100020000000000000000000000000000F050008B4
:100030001105000800000000130500081505000860
:10004000590E0008590E0008590E0008590E0008F4
:10005000590E0008590E0008590E0008590E0008E4
:10006000590E0008590E0008590E0008590E0008D4
:10007000590E0008590E0008550D0008590E0008C9
:10008000590E0008590E0008590E0008590E0008B4
:10009000590E0008590E0008590E0008F90A000808
:1000A000590E0008590E0008590E0008590E000894
:1000B000590E0008590E0008590E0008590E000884
:1000C000590E0008590E0008590E0008590E000874
:1000D000590E0008590C0008590E0008590E000866
:1000E0001D0B0008590E0008590E0008590E000893
:1000F000590E0008590E0008590E0008590E000844
:10010000590E0008590E0008590E0008590E000833
:10011000590E0008590E0008590E0008590E000823
:10012000590E0008590E0008590E0008590E000813
:1001300000000000000000000000000000000000BF
:1001400000000000000000000000000000000000AF
:10015000000000000000000000000000000000009F
:10016000000000000000000000000000000000008F
:10017000000000000000000000000000000000007F
:10018000000000000000000000000000000000006F
:10019000000000000000000000000000000000005F
:1001A000000000000000000000000000000000004F
:1001B000000000000000000000000000000000003F
:1001C000000000000000000000000000000000002F
:1001D000000000000000000000000000000000001F
:0401E0005FF8E0F1F3
:1001E40010B5054C237833B9044B13B10448AFF36D
:1001F40000800123237010BD6C0800200000000063
:100204007028000808B5034B1BB103490348AFF33A
:10021400008008BD0000000070080020702800085D
:10022400844641EA000313F0030349D1403A23D33F
:100234000B6803604B6843608B688360CB68C36062
:100244000B6903614B6943618B698361CB69C3614A
:100254000B6A03624B6A43628B6A8362CB6AC36232
:100264000B6B03634B6B43638B6B8363CB6BC3631A
:1002740040304031403ADBD230320BD30B6803605C
:100284004B6843608B688360CB68C3601030103167
:10029400103AF3D20C3205D351F8043B40F8043B36
:1002A400043AF9D2043208D0D2071CBF11F8013B3A
:1002B40000F8013B01D30B8803806046704700BF00
:1002C400082A13D38B07B1D010F00303AED0C3F1C7
:1002D4000403D21ADB071CBF11F8013B00F8013BF1
:1002E400A4D331F8023B20F8023B9FE7043AD9D368
:1002F400013A11F8013B00F8013BF9D20B78037085
:100304004B7843708B7883706046704782B00023CB
:10031400019300932C4A136843F4803313602A4BEF
:100324001B6803F400330093019B01330193009B8A
:100334001BB9019BB3F5A06FF1D1234B1B6813F4D8
:10034400003F06D001230093009B012B04D002B090
:10035400704700230093F7E71C4B1A6842F0100221
:100364001A601A6822F007021A601A6842F0020240
:100374001A60A3F580535A685A605A685A605A68DA
:1003840042F480625A605A6822F47C125A605A68B5
:1003940042F4E8125A601A6842F080721A600A4BFA
:1003A4001B6813F0007FFAD0074B5A6822F003024F
:1003B4005A605A6842F002025A60034B5B6803F0C9
:1003C4000C03082BF9D1C2E70010024000200240C0
:1003D40008B5FFF79BFF08BD08B5104B1A6842F03B
:1003E40001021A6059680E4A0A405A601A6822F0DB
:1003F400847222F480321A601A6822F480221A600D
:100404005A6822F4FE025A604FF41F029A60FFF702
:10041400DFFF044B4FF000629A6008BD00100240F9
:100424000000FFF800ED00E04FF0FF3070470000DF
:1004340070B50E46154600240AE08021064800F0F7
:10044400BEF90028F9D0315D034800F0B0F9013459
:10045400AC42F2DB284670BD0038014070B50E4650
:1004640015460024AC420FDA2021084800F0A7F911
:100474000028F9D0054800F09EF90A2802D030552A
:100484000134EFE700233355204670BD00380140A6
:10049400002070474FF400534B6000207047012048
:1004A400704700000346084A126832B1064A1068D1
:1004B4000344064A934204D9FEE7034A04491160FF
:1004C400F4E7014A136070478808002000C0002048
:1004D400D808002008B500F05DFC4FF4967000F0D9
:1004E40077FC00F06FFB00F02BFB0349034800F09E
:1004F400E7FB00F01BFCFEE7040000204400024080
:100504007047FEE7FEE7FEE7FEE770477047704777
:10051400704730B5CB7803F00F02964613F0100FF6
:1005240003D091F802E04EEA020E0B7803B304689C
:10053400002301E042610133072B18D801229A40BD
:10054400B1F800C032EA0C05F5D14FEA830C0F254F
:1005540005FA0CF524EA05040EFA0CFC4CEA040432
:10056400CD78282DE6D0482DE5D10261E3E704607B
:100574000B88FF2B25D94468002303E0CD78482D50
:100584001CD00133072B1BD803F1080C012202FAFB
:100594000CF2B1F800C032EA0C05F2D14FEA830C38
:1005A4000F2505FA0CF524EA05040EFA0CFC4CEAB6
:1005B4000404CD78282DE1D14261DFE70261E0E750
:1005C400446030BD01617047034B5B69034201D055
:1005D400012070470020704700040140014B58611E
:1005E400704700BF0004014040F0BF6040F4003099
:1005F400014BD860704700BF00ED00E0C378FBB149
:10060400154BDA68D243C2F30222C2F1040C0F2361
:1006140023FA02F2417801FA0CF1837813400B4378
:100624001B010278DBB20D490A4482F800330378D7
:1006340003F01F005B090122824041F82320704728
:10064400037803F01F015B0901228A402033034928
:1006540041F82320704700BF00ED00E000E100E016
:10066400042806D04FF0E022136923F00403136139
:1006740070474FF0E022136943F00403136170479D
:1006840030B587B004460D46038A9BB2CA8823F46A
:1006940040531343038283899BB2898828896A89DA
:1006A40001430A4323F4B05323F00C031343A381FF
:1006B400A38A9BB2AA8923F440731343A38201A89B
:1006C40000F0B2F81D4B9C4224D0039BA28912F483
:1006D400004F21D103EB830303EB83032A689200C9
:1006E400B3FBF2F3164AA2FB031252091101642070
:1006F40002FB1033A28912F4004F16D11B013233CE
:100704000F4AA2FB0323C3F343130B439BB223817E
:1007140007B030BD049BD9E703EB830303EB8303EA
:100724002A685200B3FBF2F3DCE7DB003233044AFD
:10073400A2FB0323C3F342130B43E7E70038014052
:100744001F85EB5129B183899BB243F40053838104
:10075400704783899BB223F400539BB28381704713
:10076400C1F3421C01F01F01012303FA01F19C456E
:1007740008D0BCF1020F07D014303AB10368194312
:10078400016070470C30F8E71030F6E7036823EA9D
:1007940001010160704722B1838A9BB219438182AF
:1007A4007047838AC94389B2194081827047C1F373
:1007B4000801818070478088C0F30800704703886F
:1007C400194201D00120704700207047C1F3421242
:1007D40001F01F0C012303FA0CF3012A0FD0022AA3
:1007E40011D0828A92B21340090A012202FA01F15D
:1007F400028892B20A4053B15AB9002070478289E4
:1008040092B21340F0E7028A92B21340ECE7002060
:10081400704701207047090A01238B409BB2DB43D8
:100824009BB203807047000010B4294B5B6803F04F
:100834000C03042B2BD0082B2CD013B1254B0360B5
:1008440001E0244B036022494B68C3F30313224C99
:10085400E35CDAB20368D34043604A68C2F302221D
:10086400A25CD2B223FA02F282604A68C2F3C222C4
:10087400A25CD2B2D340C3604A68C2F38132174942
:100884008A5CD2B2B3FBF2F3036110BC7047114B24
:100894000360D8E70E4A53685268C3F383430233B4
:1008A40012F4803F04D10E4A02FB03F30360CAE74B
:1008B400074A526812F4003F04D0094A02FB03F3CA
:1008C4000360C0E7034A02FB03F30360BBE700BF16
:1008D4000010024000127A001800002014000020CA
:1008E40000093D0021B1054A53691843506170471E
:1008F400024A536923EA0000506170470010024025
:1009040021B1054A9369184390617047024A93697B
:1009140023EA00009061704700100240036823F04E
:1009240001031B041B0C036000230360436083600A
:10093400C360364B984221D0354B984224D0354B76
:10094400984227D0344B98422AD0344B98422DD029
:10095400334B984230D0334B984233D0324B984289
:1009640036D0324B984239D0314B98423CD0314B3F
:1009740098423FD0304B984242D070472F4A536838
:1009840043F00F03536070472C4A536843F0F0035D
:1009940053607047294A536843F470635360704747
:1009A400264A536843F4704353607047234A53689C
:1009B40043F4702353607047204A536843F4700330
:1009C400536070471D4A536843F070635360704727
:1009D4001B4A536843F00F0353607047184A536827
:1009E40043F0F00353607047154A536843F470634F
:1009F40053607047124A536843F47043536070471E
:100A04000F4A536843F470235360B6E7080002406A
:100A14001C000240300002404400024058000240E2
:100A24006C00024080000240080402401C040240A2
:100A340030040240440402405804024000000240D2
:100A44000004024010B4026822F4FF4222F0700253
:100A54008B680C6A23430C6923434C6923438C69D8
:100A64002343CC6923434C6A23438C6A23431343B3
:100A74000360CB6843600B6883604B68C36010BC41
:100A8400704721B1036843F00103036070470368B2
:100A940023F001031B041B0C036070471AB10368A5
:100AA400194301607047036823EA0101016070473C
:100AB4004160704710F0805F05D0054B1B6803420E
:100AC40004D001207047034B1B68F8E700207047EF
:100AD400000402400000024010F0805F02D0034B8B
:100AE40058607047024B5860704700BF00040240D2
:100AF4000000024008B52020FFF766FD00B908BDDC
:100B0400044AD36883F48073D3602020FFF766FD22
:100B1400F5E700BF0008014008B54FF40040FFF7B7
:100B240053FD00B908BD054AD36883F48073D360CC
:100B34004FF40040FFF752FDF4E700BF0008014006
:100B440030B583B001212420FFF7DAFE10238DF89D
:100B540007304FF48075ADF8045003238DF8063048
:100B64000C4C01A92046FFF7D4FC29462046FFF788
:100B740029FD0425ADF8045004F540640DEB05018E
:100B84002046FFF7C6FC29462046FFF71BFD03B0AD
:100B940030BD00BF0008014000B583B04FF4A06031
:100BA400FFF722FD25238DF8043001238DF805304D
:100BB4008DF806308DF8073001A8FFF71FFD03B04C
:100BC4005DF804FB10B586B0012144F20400FFF780
:100BD40097FE4FF40073ADF8043018238DF80730F6
:100BE40003238DF806301A4C01A92046FFF791FC27
:100BF4004FF48063ADF8043004238DF807300DEB17
:100C040003012046FFF785FC4FF4E13302930023F0
:100C1400ADF80C30ADF80E30ADF81030ADF814303E
:100C24000C23ADF8123004F5405402A92046FFF716
:100C340027FD012240F225512046FFF791FDFFF7E1
:100C4400ABFF01212046FFF77DFD06B010BD00BFBC
:100C54000008014008B540F225510B48FFF7B6FDE6
:100C640000B908BD094AD36883F48073D36002F5E0
:100C74004062D36883F00403D36040F225510248F4
:100C8400FFF7C9FDEDE700BF00380140000801404F
:100C940000B583B04FF4A060FFF7A6FC0E238DF8D7
:100CA400043002238DF8053001238DF806308DF8C9
:100CB400073001A8FFF7A2FC03B05DF804FB0000B5
:100CC40070B58CB004460D4601210846FFF70AFEB4
:100CD400134E3046FFF722FE0295124B0193102368
:100CE40003930C230493002305938025069507930F
:100CF400089309930B934FF440530A9301A9204698
:100D0400FFF7A0FE012202213046FFF7C7FEFFF7DE
:100D1400BFFF012229460448FFF73DFD0CB070BD1A
:100D240044000240043801400038014010B5074C2B
:100D340000212046FFF7A5FE0C212046FFF7B8FE50
:100D440001212046FFF79DFE10BD00BF4400024074
:100D540008B54FF40050FFF7ADFE88B14FF40050D2
:100D6400FFF7BAFE084B1B682BB1013B064A136020
:100D7400FFF7DCFF07E000210448FFF782FE02E0F2
:100D8400034800F009F908BD1000002044000240A7
:100D94008828000808B56FF00400FFF761FC084BD1
:100DA4001B68084AA2FB0323C3F34753064A137084
:100DB400C3EB431203EB8203DA00044B1A8008BD31
:100DC4000000002083DE1B438E0800208C080020D6
:100DD4000E4B1B8803FB00F04FF0E0235861002208
:100DE4009A611A6942F001021A614FF0E0231B690B
:100DF40003F00113012BF8D04FF0E0231A6922F01D
:100E040001021A6100229A61704700BF8C08002019
:100E1400002103E00A4B5B584350043109480A4B54
:100E240042189A42F6D3094A02E0002342F8043BEE
:100E3400074B9A42F9D3FFF7CFFAFFF74BFB704702
:100E4400A4280008000000206C0800206C08002082
:100E5400D8080020FEE70000830730B548D0541EB0
:100E6400002A3FD00346CAB201E0013C3AD303F85A
:100E7400012B9D07F9D1032C2DD9CDB245EA0525C7
:100E84000F2C45EA054536D9A4F1100222F00F0CC7
:100E940003F1200EE6444FEA121C03F1100242E96A
:100EA400045542E9025510327245F8D10CF10102A1
:100EB40014F00C0F03EB021204F00F0C13D0ACF17E
:100EC400040323F003030433134442F8045B934202
:100ED400FBD10CF003042CB1CAB21C4403F8012B5F
:100EE4009C42FBD130BD64461346002CF4D1F9E793
:100EF40003461446BFE71A46A446E0E730B5054664
:100F040089B008460C4600F04FF801210223214A1B
:100F140004940692AA6B04AC0590084401940791CA
:100F2400AC680293039022B3636E13F0010FB4F91B
:100F34000C309AB201D1980525D5910406D4626E7D
:100F440043F4005322F40052A3816266284601AAA6
:100F5400214600F015F9636E002814BF4FF0FF35E9
:100F64000A25DA0702D4A3899B0506D5284609B0C9
:100F740030BD284600F05CF8D6E7A06D00F0A2FA78
:100F8400284609B030BDA06D00F09AFAB4F90C30CF
:100F94009AB2D2E794280008024B01461868FFF77A
:100FA400ADBF00BF2800002020F0030110F00300B3
:100FB400C0F1000051F8043B00F1040C4FEACC0CE2
:100FC4006FF000021CBF22FA0CF213434FF0010C25
:100FD4004CEA0C2C4CEA0C4CA3EB0C0222EA030264
:100FE40012EACC1204BF51F8043B0430F4D0C2F12D
:100FF400000102EA0102B2FA82F2C2F11F0200EB1E
:10100400D2007047024B13B1024800F005B8704794
:101014000000000059110008002301461A46184632
:1010240001F094B8014900F023BA00BF012200087E
:101034002DE9F0478246394800F042FADAF83840A0
:10104400002C66D1042303223549DAF80450CAF887
:101054003C10DFF8D090DFF8D080344F344E0AF5DE
:101064003B71CAE9B921CAF8E0422146EB60082283
:10107400C5E90044C5E904446C66AC60AC6105F1A3
:101084005C00FFF7E9FEC5E90759C5E90987EE6287
:1010940005F1580000F010FADAF80850254B214603
:1010A400EB600822C5E90044C5E904446C66AC6001
:1010B400AC6105F15C00FFF7CFFEC5E90759C5E94E
:1010C4000987EE6205F1580000F0F6F9DAF80C50E1
:1010D400194B2146EB600822C5E90044C5E90444E4
:1010E4006C66AC60AC6105F15C00FFF7B5FE05F120
:1010F4005800C5E90759C5E90A76C5F8248000F007
:10110400DBF901230548CAF83830BDE8F04700F0A0
:10111400D9B90248BDE8F04700F0D4B99C080020D2
:1011240029100008C51F0008E91F0008292000082D
:10113400492000080900010012000200014800F0E3
:10114400BFB900BF98080020014800F0BBB900BF38
:101154009808002038B5084B084D5B1B9C1007D03D
:10116400043B1D44013C55F804399847002CF9D13F
:10117400BDE8384001F080BBA4280008A02800087E
:101184009368002B00F0B7802DE9F04FB1F90C30D3
:101194000C4619078046174683B098B225D52369B3
:1011A4001BB310F002033D682DD04FF0000B5E46D8
:1011B400DFF8B8A2002E00F08B80564533465A461D
:1011C40028BF53464046E169D4F824C0E0470028CC
:1011D40040F38780BB6883441B1A361ABB60002B1C
:1011E400E8D1002003B0BDE8F08F2146404600F06E
:1011F40043FF002840F03681B4F90C303D6898B2C2
:1012040010F00203D1D110F0010976D14E46002E20
:101214005AD08205D4F808B040F1B580B3455A4697
:1012240000F2CD8010F4906F00F0CB802368216928
:10123400A3EB010B636903EB430A0AEBDA7A0BF1C4
:1012440001034FEA6A0A33445345524684BF9A461F
:101254005246430540F1EA801146404600F034F915
:10126400002800F0F9805A4621690190FEF7D8FF62
:10127400A289019B22F4906242F08002A28103EBD6
:101284000B0023613246AAEB0B03B346C4F814A047
:10129400A3602060B24600264946019200F008FC93
:1012A400A3682168019AA3EB0B030A44A36022609C
:1012B400B868D144A0EB0A00B860002891D0B4F912
:1012C4000C0080B2002EA4D1D5E9009608359EE723
:1012D400D5E900B608356DE72146404601F086F8A9
:1012E40080B3B4F90C304FF0FF3043F04003A381D6
:1012F40003B0BDE8F08F002070471E46AA46994609
:1013040018461D4656B3002832D04A462068216943
:10131400B24228BF32468842636904D9A16803EB0C
:10132400010B5A4574DC934265DC2A464046E16968
:10133400D4F824C0E047B0F1000BD2DDB9EB0B09BF
:10134400CAD00120BB685D44A3EB0B03A6EB0B06DC
:10135400BB60002B3FF445AF002ED4D10AF1080343
:1013640053F8046C9A4653F8085C0833002EF7D0FF
:1013740032460A21284600F053FB002869D0013088
:10138400A0EB0509C1E72068236998421BD863696B
:10139400B34218D86FF0004CB44528BFB4469CFB48
:1013A400F3FC4A4603FB0CF34046E169D4F824C03D
:1013B400E047B0F1000A94DDA6EB0A0678E7B346ED
:1013C4003246206866E7B345DA4628BFB246494646
:1013D400524600F06DFBA3682268A3EB0A03524453
:1013E400A3602260002BE7D12146404600F0FEFFB7
:1013F4000028E1D075E729469346019200F058FB96
:10140400A368019A9B1AA36023681A44226095E793
:1014140029465A4600F04CFB236821465B4440466B
:10142400236000F0E3FF002888D05AE7404600F02C
:10143400C7FB034600287FF422AF4046216901F030
:1014440053F80C22B4F90C30C8F8002023F08003C0
:1014540049E7721C914659E70C22B4F90C30C8F8DC
:10146400002040E74FF0FF30BCE600BF00FCFF7FE8
:101474002DE9F8434FF000090746884600F5387611
:10148400D6E90154013D10D4A389013D012B08D9AB
:10149400B4F90E30013304D021463846C04749EA36
:1014A40000096B1C04F16804EED13668002EE7D104
:1014B4004846BDE8F88300BF704700BF704700BFCF
:1014C400704700BF704700BF2DE9F04F01F10B05D5
:1014D400162D064683B025D8102900F2B88000F0F6
:1014E40063FB102518224FF0020CB54F3A445368A1
:1014F400A2F108018B4200F0B7805A68D96822F043
:1015040003021A449C683046E1608C60516803F120
:10151400080441F00101516000F04CFB204603B087
:10152400BDE8F08F35F0070500F19180A94200F283
:101534008E8000F039FBB5F5FC7FC0F094816B0A16
:1015440000F08C80042B00F26A81AB0903F1390CA2
:1015540003F138044FEACC00994F38444368083803
:10156400984206D10CE0002980F22681DB6898427B
:1015740006D05A6822F00302511B0F29F3DDA4465A
:101584003C69DFF840E274457AD0626822F00302D5
:10159400531B0F2B00F37681002BC7E904EE80F276
:1015A4006781B2F5007F80F019810121D3085209C7
:1015B4000B4491407A6857F833000A4307EBC301A0
:1015C4000839A060E1607A6047F83340C4600121C3
:1015D4004FEAAC039940914259D8114206D12CF0FC
:1015E400030C490011420CF1040CFAD007EBCC09AE
:1015F40048466446D0F80C80404508D11CE1002BD5
:1016040080F22181D8F80C80404500F01581D8F88B
:10161400042022F00302531B0F2BF0DD08EB05011D
:1016240045F00105C8F804503046D8E90264F46076
:10163400A66043F00104C7E904114C60C1E902EE5D
:1016440048F8023000F0B6FA08F1080402E00C236E
:1016540000243360204603B0BDE8F08F4FF40070DF
:101664004FF0400C3F2477E7D3689A4208BF0CF14F
:10167400020C7FF442AF3C69DFF848E1744584D141
:1016840001217A684FEAAC0399409142A5D9BC681C
:10169400636823F003094D4503D8A9EB05030F2B19
:1016A4007ADCDFF824B1494BDBF800201B680132F7
:1016B4002B4404EB090A00F02F8103F580530F3308
:1016C40023F47F6828F00F084146304600F066FC9A
:1016D400411C024600F0EF80824500F2EA803C4B58
:1016E400196841440846196000F04981DBF800108C
:1016F400019301311BBFA2EB0A0A5044CBF800202E
:10170400186012F0070B00F01181CBF108010A44B4
:10171400CBF5805190440831A1EB0801C1F30B0AC9
:1017240051463046009200F039FC421CDDE90023AA
:1017340000F04B81801A00EB0A08196848F0010098
:101744005144BC42BA601960506000F02481B9F180
:101754000F0F40F222814FF0050E6068A9F10C0CC6
:101764002CF0070C00F0010040EA0C006060BCF1B2
:101774000F0F04EB0C00C0E901EE00F22E811446B9
:101784005068144B1A688A4238BF1960124B1A68A1
:101794008A4238BF196090E0621943F0010345F0B2
:1017A400010565603046BA600834536000F002FAFF
:1017B400204603B0BDE8F08FD9681A44A2E600BF02
:1017C4005C0400206404002064080020D008002089
:1017D400A0080020C8080020CC080020B2F5206F23
:1017E4004FEA52235FD3142B00F2B18003F15C0162
:1017F400C9005B33781879580838884200F08F8024
:101804004B6823F00303934202D989688842F7D1D5
:10181400C8687A68C4E902108460CC60D7E6142BE7
:1018240059D9542B00F29B802B0B03F16F0C03F15D
:101834006E044FEACC008FE60134A30700F10800E0
:101844007FF4D8AE53E0444642445368D8F80C10B1
:1018540043F00103536054F8083F3046D9608B606D
:1018640000F0A8F9F6E64FEAD50C05F108023CE6CB
:1018740022445368304643F00103536000F09AF960
:101884000834E7E6611945F00105656043F0010598
:10189400C7E904113046C1E902EE4D60A35000F0DF
:1018A40089F90834D6E6930903F13901C9003833BC
:1018B400A0E7BC425ED0BC68606820F003084545E0
:1018C400A8EB050302D80F2B3FF766AF304600F0B4
:1018D40071F90024BEE603F15C0C03F15B044FEAEA
:1018E400CC0039E659F808394B4540F095801CF096
:1018F400030F0CF1FF3CF5D17B6823EA01037B6005
:10190400490099423FF6C3AE11B9C0E64900043418
:101914001942FBD0A44669E603F11008D4E601227B
:101924009B109A407B681A437A6073E702EB0801C4
:101934004942C1F30B0A51463046009200F02EFB97
:10194400431CDDE900237FF4F5AEDA46F5E6542BBB
:1019540026D8130B03F16F01C9006E334AE7B3F5C0
:10196400AA7F26D8EB0B03F1780C03F177044FEA36
:10197400CC00F1E5294B186840441860B6E6CAF378
:101984000B0CBCF1000F7FF4B1AEBC68C84448F046
:1019940001006060F5E61446F3E60123536095E721
:1019A400B3F5AA7F24D8D30B03F17801C9007733A8
:1019B40020E740F25452934224D8AB0C03F17D0C3F
:1019C40003F17C044FEACC00C6E5ABF1080BD84424
:1019D4004FF0000AA8EB0208AFE604F10801304614
:1019E400009300F081FDBC68009B60681968C8E63C
:1019F40040F254518B420BD8930C03F17D01C90082
:101A04007C33F7E64FF47E704FF07F0C7E24A3E521
:101A14004FF47E717E23EDE67B6871E7A008002019
:101A24005FFA81FC810710D00346511E2AB90AE0EF
:101A34009A0718460AD0013905D3184613F8012B22
:101A44006245F5D1704700207047114603290CD830
:101A54000029F8D00346014401E08B42F3D0184634
:101A640013F8012B6245F8D1ECE7024610B54CEAB5
:101A74000C2444EA04441046036804326340A3F18E
:101A8400013E2EEA030313F0803F04D104390329F5
:101A94001046F0D851B10346014401E08B4205D011
:101AA400184613F8012B6245F8D110BD002010BD73
:101AB40088420DD98B1883420AD900EB020CBAB1C3
:101AC400624613F801CD994202F801CDF9D170476D
:101AD4000F2A0ED8034602F1FF3C4AB10CF1010C67
:101AE400013B8C4411F8012B614503F8012FF9D116
:101AF400704740EA01039B074FD1A2F1100370B570
:101B040001F1200C23F00F0501F1100E00F1100477
:101B1400AC441B095EF8105C0EF1100E44F8105C26
:101B24005EF81C5C103444F81C5C5EF8185C44F8E5
:101B3400185C5EF8145CE64544F8145CEAD10133A1
:101B440012F00C0F01EB031102F00F0400EB03136E
:101B540027D08E46043C24F003064FEA940C1E441E
:101B64001C1F5EF8045B44F8045FB442F9D10CF125
:101B7400010402F0030203EB840301EB840102F18C
:101B8400FF3C4AB10CF1010C013B8C4411F8012BD0
:101B9400614503F8012FF9D170BD034602F1FF3C02
:101BA4009CE72246EBE700BF0148FFF789BC00BF72
:101BB400940800200148FFF785BC00BF940800206A
:101BC4002DE9F84F1646002900F0988006F10B0520
:101BD40080460C46FFF7E8FF162D5DD810252A46EF
:101BE400AE425ED854F8041CA4F1080921F003079E
:101BF400974262DABC4B09EB0700D3F808C084456E
:101C040000F09780D0F804C02CF0010303445B6813
:101C1400DB0768D42CF0030C07EB0C03934247DA80
:101C2400CB0710D454F8083CA9EB030ADAF80430C3
:101C340023F003018C44BC44944580F211817B1849
:101C4400934280F2E88031464046FFF73DFC064669
:101C5400E0B154F8043CA0F1080223F001034B4422
:101C6400934200F0D2803A1F242A00F2F580132A0E
:101C740000F2AC800346224611681960516859602D
:101C840092689A602146404600F02EFC4046FFF7D9
:101C940091FF3046BDE8F88F25F00705002D2A4650
:101CA4009EDA0C230026C8F800303046BDE8F88FD1
:101CB4001F46D0E90223D3609A607B1B0F2B22D8E6
:101CC400D9F8043003F001033B43C9F804304F440E
:101CD4007B6843F001037B6026464046FFF76AFFBA
:101CE4003046BDE8F88FC907ADD454F8083CA9EBD9
:101CF400030ADAF8041021F00301A0E71146BDE855
:101D0400F84FFFF7E1BBD9F8041043F0010301F0E9
:101D140001012943C9F8041009EB05014B604F4444
:101D24007B68404643F0010308317B6000F0DCFB34
:101D3400D2E7DCF8040020F0030B07EB0B0C05F1F1
:101D4400100084454DDAC9073FF57DAF54F8081CEF
:101D5400A9EB010ADAF8041021F003018B44BB4417
:101D640058453FF76CAF5646DAF80C1056F8080F92
:101D74003A1F242AC160886000F2DB80132A40F2F3
:101D8400D68021681B2ACAF808106168CAF80C10AA
:101D940000F2E08008340AF11002216811606168E1
:101DA4005160A1689160ABEB05020AEB050142F0BA
:101DB400010299604A60DAF80430404603F00103F6
:101DC4001D43CAF80450FFF7F5FE6EE723681B2A8B
:101DD40003606368436068D804F1080200F10803F3
:101DE4004AE709EB0502ACEB050C9A604CF00103E1
:101DF400536054F8043C404603F001031D4344F887
:101E0400045CFFF7D7FE26464FE750F8043C23F066
:101E140003031F4451E75646DAF80C1056F8080F2E
:101E24003A1F242AC16088604CD8132A48D92168F3
:101E34001B2ACAF808106168CAF80C1056D808346E
:101E44000AF110021F462368D14613606368536089
:101E5400A3683446936030E72146FFF729FE11E773
:101E64005646D0E90213CB60996056F8081FDAF899
:101E74000C303A1F242ACB6099602DD8132A29D913
:101E840023681B2ACAF808306368CAF80C3042D8A1
:101E940008340AF11003226867461A606268D14662
:101EA4005A60A26834469A6007E7A368242A8360CC
:101EB400E368C36026D004F1100200F11003DBE6EE
:101EC4003246BFE7214630461F46D146FFF7F0FDB4
:101ED4003446F2E63346DEE7214630466746D146CD
:101EE400FFF7E6FD3446E8E65C040020A168242AF6
:101EF400CAF81010E168CAF8141020D010340AF19E
:101F040018029FE7236904F11802036163694361BE
:101F140000F11803B0E6A368242ACAF81030E36875
:101F2400CAF8143022D010340AF11803B3E7324649
:101F340033E721463046FFF7BBFD174B33E72269F1
:101F44001834CAF8182054F8042CCAF81C200AF1D2
:101F5400200277E7A168242ACAF81010E168CAF8B9
:101F640014100ED010340AF1180216E7236918343D
:101F7400CAF8183054F8043CCAF81C300AF120039B
:101F840089E722691834CAF8182054F8042CCAF8CE
:101F94001C200AF1200200E75C040020002238B56E
:101FA400064D044608462A60FEF77CFA431C00D01E
:101FB40038BD2B68002BFBD0236038BDD40800202B
:101FC40010B50C46B1F90E1000F014FC002803DB28
:101FD400236D0344236510BDA38923F48053A38197
:101FE40010BD00BF2DE9F0410C46B1F90C101F469D
:101FF400CB05054616460BD421F48051A1813B46FE
:1020040032462846B4F90E10BDE8F04100F01EB87F
:10201400B4F90E100223002200F066FBB4F90C1090
:10202400EAE700BF10B50C46B1F90E1000F05CFBF6
:10203400A389421C0EBF23F4805343F480532065CC
:10204400A38110BDB1F90E1000F0C6B838B50C4626
:10205400114600228446074D20462A601A466446EB
:10206400FEF7E6F9431C00D038BD2B68002BFBD0EB
:10207400236038BDD408002038B5334B05461B68AF
:102084000C460BB19A6B12B3B4F90C3018079AB220
:1020940025D5216900292DD012F0010007D0002593
:1020A4006069A5604042A06139B1002038BD950740
:1020B40058BF6069A0600029F7D1120658BF0846CE
:1020C400F4D543F040034FF0FF30A38138BD1846E8
:1020D400FEF7AEFFB4F90C3018079AB2D9D4D10682
:1020E4002AD5520714D4216943F00803A3819AB274
:1020F4000029D1D102F42070B0F5007FCCD0214664
:10210400284600F007FBB4F90C3021699AB2C3E702
:10211400216B51B104F14002914204D0284600F0F1
:10212400E3F9B4F90C30002222630022216923F080
:102134002403C4E90012D7E7092243F040032A60CC
:102144004FF0FF30A38138BD280000202DE9F0476F
:10215400DFF87CA00646DAF8000098460F46914660
:10216400FFF7AEF91B4B1B68D3F8484124B36568ED
:102174001F2D26DC5EB96B1C0235DAF800006360A3
:1021840044F82570FFF79EF90020BDE8F08701238D
:1021940004EB8501C1F88890D4F88821AB401A4338
:1021A400022EC4F88821C1F80881E4D1D4F88C2126
:1021B4001343C4F88C31DEE703F5A674C3F8484131
:1021C400D5E7DAF80000FFF77DF94FF0FF30DCE7E0
:1021D4005804002090280008002238B5064D044613
:1021E40008462A60FEF720F9431C00D038BD2B684E
:1021F400002BFBD0236038BDD408002070B5002923
:102204004BD006460C4610B1836B002B48D0636E4E
:10221400D80734D5B4F90C30002B3ED021463046D3
:1022240000F052F8E36A054633B13046E169984755
:102234000028B8BF4FF0FF35A3891A063BD4216BA1
:1022440041B104F14003994202D0304600F04CF908
:1022540000232363616C21B1304600F045F900236B
:102264006364FEF76BFF0022636EA281DB0727D550
:10227400A06DFFF723F9FEF767FF284670BDA38919
:102284009905CBD4A06DFFF71BF9B4F90C30002BE2
:10229400C4D1656E15F0010508D00025284670BD2F
:1022A400FEF7C6FE636ED807B4D4E8E7A06DFFF767
:1022B40009F9284670BD3046216900F015F9BEE7DA
:1022C400A06DFFF7FFF8D3E7B1F90C20F8B50C4681
:1022D4001107074643D4636842F40062002BA281CD
:1022E4005BDDA56A002D56D000233E683B6093B2A7
:1022F40012F4805255D101233846E169A847421CA3
:1023040065D0A389A56A5B0705D56368C01A236BEA
:102314000BB1E36BC01A0246E16900233846A847B3
:10232400411C40D13B68002B3DD01D2B01D0162B06
:1023340054D10022A38923F40063A3812369C4E94F
:102344000032216B3E6031B304F14003994202D064
:10235400384600F0C9F8002318462363F8BD2669FF
:10236400CEB193B29A0718BF0023256808BF6369EA
:102374002660AD1BA3600CE02B463246D4F824C083
:102384003846E169E047B0F1000CA5EB0C05664462
:1023940016DD002DF0DC0020F8BDE36B002BA0DC83
:1023A400F9E7206DAFE70022B4F90C30626023F442
:1023B40000632269A381DB042260C2D52065C0E7E3
:1023C400A3894FF0FF3043F04003A381F8BD3B687D
:1023D400002B96D01D2B06D0162B04D0A38943F0D6
:1023E4004003A381F8BD00203E60F8BD38B5054622
:1023F4000C4608B1836BA3B1B4F90C00B8B1636E99
:10240400DB0701D4810515D528462146FFF75CFF7B
:10241400636E0546DA0702D4A3899B050ED52846C8
:1024240038BDFEF705FEB4F90C000028E7D10546D7
:10243400284638BDA06DFFF743F8E5E7A06DFFF728
:1024440041F8284638BD00BFF8B50C46234F064670
:10245400FFF7AAFBBB685D68C4F57E6325F003053E
:102464000F332B4423F47F6323F00F03A3F580542D
:10247400B4F5805F07DB00213046FFF78FFDBB68B2
:102484002B44984204D03046FFF794FB0020F8BD5B
:1024940030466142FFF782FD01300DD0104ABB681F
:1024A4002D1B45F001055D60136830461B1B13604E
:1024B400FFF780FB0120F8BD00213046FFF76EFDD9
:1024C400BA68831A0F2BDEDD43F001035360054B1A
:1024D40003491B68C01A0860D5E700BF5C040020EC
:1024E400A00800206408002000295ED0F8B50C463E
:1024F4000646FFF759FB54F8042C784FA4F108055D
:1025040022F001016818D7F808C04368844523F015
:10251400030300F08780D207436034D454F8082CB6
:1025240007F10804AD1A1144AA68A24268D000EB6E
:10253400030CDCF804E0D5F80CC01EF0010FC2F85F
:102544000CC0CCF8082000F0918041F001036B60CE
:102554000160B1F5007F31D24A09CB0801219140D5
:102564007A6801331143796007EBC30257F83310DB
:10257400083AC5E9021247F83350CD603046BDE849
:10258400F840FFF717BBC2185268D2070ED419449B
:1025940007F108048368A34270D0C268DA609360CC
:1025A40041F001036B606950D3E7704741F00103C8
:1025B400B1F5007F44F8043C0160CDD3B1F5206F40
:1025C4004FEA512347D28B0903F1390003F1380252
:1025D400C300F818FB580838984258D05A6822F0BB
:1025E40003028A4202D99B689842F7D1D868C5E9A8
:1025F400023085603046DD60BDE8F840FFF7DABAA6
:10260400C2185268D20763D40B44D0E90212CA60DC
:10261400916043F001026A603046EB50BDE8F84037
:10262400FFF7C8BA0B44D10707D454F8082CAD1AE5
:102634001344D5E90212CA60916043F001026A6052
:10264400274ABD6012689A4298D8264B30461968CA
:10265400FFF7FAFE92E7142B0AD9542B1FD80B0B61
:1026640003F16F0003F16E02C300B2E7194491E76E
:1026740003F15C0003F15B02C300AAE741F001032C
:10268400C7E90455C5E902446B60695076E7012146
:10269400921001FA02F279680A437A60A7E7B3F567
:1026A400AA7F06D8CB0B03F1780003F17702C300AD
:1026B4008FE740F25452934206D88B0C03F17D000D
:1026C40003F17C02C30084E74FF47E737E2280E72B
:1026D40041F001036B60016050E700BF5C0400201F
:1026E40068080020D008002038B50C4611460022A6
:1026F4008446074D20462A601A466446FDF7C8FE04
:10270400431C00D038BD2B68002BFBD0236038BDA0
:10271400D40800202DE9F0418B890C46990796B026
:1027240008D5012204F14303C4E90432236016B03E
:10273400BDE8F081B4F90E100646002927DB6A468D
:1027440000F06EF8002821DB019D4FF4806805F449
:102754007045A5F50055B5FA85F54FF400676D0988
:1027640041463046FEF7B0FEB4F90C30F0B1204AD1
:1027740043F08003F263C4F81480A38120602061D5
:1027840035BB3B43A38116B0BDE8F081A38913F0A8
:10279400800519D04FF04008304641460025FEF729
:1027A40093FE2F46B4F90C300028E0D19A05BED42C
:1027B400012123F0030304F1430243F00203C4E9BB
:1027C4000421A3812260B2E74FF480682F46C7E753
:1027D4003046B4F90E1000F037F810B9B4F90C30E3
:1027E400CFE7A38923F0030343F001031BB2C8E737
:1027F4002910000838B50C46114600228446074DBE
:1028040020462A601A466446FDF728FE431C00D081
:1028140038BD2B68002BFBD0236038BDD4080020C2
:1028240070B50026074D0446084611462E60FDF794
:1028340031FE431C00D070BD2B68002BFBD02360FD
:1028440070BD00BFD4080020002238B5064D0446F0
:1028540008462A60FDF723FE431C00D038BD2B68D0
:10286400002BFBD0236038BDD4080020F8B500BF8E
:10287400F8BC08BC9E467047F8B500BFF8BC08BC5D
:042884009E467047B5
:102888006572726F72000000300000200A000000BC
:08289800091000080902000804
:0428A000E501000846
:1028A40000A24A0448656C6C6F20776F726C640AEE
:1028B4000A000000020406080000000001020304EC
:1028C400010203040607080930000020000000008C
:1028D400000000001C03002084030020EC030020FF
:1028E40000000000000000000000000000000000E4
:1028F40000000000000000000000000000000000D4
:1029040000000000000000000000000000000000C3
:1029140000000000000000000000000000000000B3
:1029240000000000000000000000000000000000A3
:102934000000000000000000000000000000000093
:102944000000000000000000000000000000000083
:102954000000000000000000000000000000000073
:102964000000000000000000000000000000000063
:102974000000000000000000010000000000000052
:102984000E33CDAB34126DE6ECDE05000B00000017
:102994000000000000000000000000000000000033
:1029A4000000000000000000000000000000000023
:1029B4000000000000000000000000000000000013
:1029C4000000000000000000000000000000000003
:102CF4000000000000000000900800200000000018
:102D0400000000005C0400205C0400206404002037
:102D1400640400206C0400206C040020740400206F
:102D2400740400207C0400207C040020840400201F
:102D3400840400208C0400208C04002094040020CF
:102D4400940400209C0400209C040020A40400207F
:102D5400A4040020AC040020AC040020B40400202F
:102D6400B4040020BC040020BC040020C4040020DF
:102D7400C4040020CC040020CC040020D40400208F
:102D8400D4040020DC040020DC040020E40400203F
:102D9400E4040020EC040020EC040020F4040020EF
:102DA400F4040020FC040020FC040020040500209E
:102DB400040500200C0500200C050020140500204B
:102DC400140500201C0500201C05002024050020FB
:102DD400240500202C0500202C05002034050020AB
:102DE400340500203C0500203C050020440500205B
:102DF400440500204C0500204C050020540500200B
:102E0400540500205C0500205C05002064050020BA
:102E1400640500206C0500206C050020740500206A
:102E2400740500207C0500207C050020840500201A
:102E3400840500208C0500208C05002094050020CA
:102E4400940500209C0500209C050020A40500207A
:102E5400A4050020AC050020AC050020B40500202A
:102E6400B4050020BC050020BC050020C4050020DA
:102E7400C4050020CC050020CC050020D40500208A
:102E8400D4050020DC050020DC050020E40500203A
:102E9400E4050020EC050020EC050020F4050020EA
:102EA400F4050020FC050020FC0500200406002099
:102EB400040600200C0600200C0600201406002046
:102EC400140600201C0600201C06002024060020F6
:102ED400240600202C0600202C06002034060020A6
:102EE400340600203C0600203C0600204406002056
:102EF400440600204C0600204C0600205406002006
:102F0400540600205C0600205C06002064060020B5
:102F1400640600206C0600206C0600207406002065
:102F2400740600207C0600207C0600208406002015
:102F3400840600208C0600208C06002094060020C5
:102F4400940600209C0600209C060020A406002075
:102F5400A4060020AC060020AC060020B406002025
:102F6400B4060020BC060020BC060020C4060020D5
:102F7400C4060020CC060020CC060020D406002085
:102F8400D4060020DC060020DC060020E406002035
:102F9400E4060020EC060020EC060020F4060020E5
:102FA400F4060020FC060020FC0600200407002094
:102FB400040700200C0700200C0700201407002041
:102FC400140700201C0700201C07002024070020F1
:102FD400240700202C0700202C07002034070020A1
:102FE400340700203C0700203C0700204407002051
:102FF400440700204C0700204C0700205407002001
:10300400540700205C0700205C07002064070020B0
:10301400640700206C0700206C0700207407002060
:10302400740700207C0700207C0700208407002010
:10303400840700208C0700208C07002094070020C0
:10304400940700209C0700209C070020A407002070
:10305400A4070020AC070020AC070020B407002020
:10306400B4070020BC070020BC070020C4070020D0
:10307400C4070020CC070020CC070020D407002080
:10308400D4070020DC070020DC070020E407002030
:10309400E4070020EC070020EC070020F4070020E0
:1030A400F4070020FC070020FC070020040800208F
:1030B400040800200C0800200C080020140800203C
:1030C400140800201C0800201C08002024080020EC
:1030D400240800202C0800202C080020340800209C
:1030E400340800203C0800203C080020440800204C
:1030F400440800204C0800204C08002054080020FC
:0C31040054080020FFFFFFFF0000020045
:0400000508000E15CC
:00000001FF
