:020000040800F2
:1000000000C000200D0A0008CD030008CF0300083F
:10001000D1030008D3030008D50300080000000046
:10002000000000000000000000000000D7030008EE
:10003000D903000800000000DB0300088509000860
:100040006D090008510A0008510A0008510A000809
:10005000510A0008510A0008510A0008510A000814
:10006000510A0008510A0008510A0008510A000804
:10007000510A0008510A0008510A0008510A0008F4
:10008000510A0008510A0008510A0008510A0008E4
:10009000510A0008510A0008510A0008A90700087F
:1000A000510A0008510A0008510A0008510A0008C4
:1000B000510A0008510A0008510A0008510A0008B4
:1000C000510A0008510A0008510A0008510A0008A4
:1000D000510A000805090008510A0008510A0008E1
:1000E000CD070008510A0008510A0008510A00080B
:1000F000510A0008510A0008510A0008510A000874
:10010000510A0008510A0008510A0008510A000863
:10011000510A0008510A000841090008510A000864
:10012000510A0008510A0008510A0008510A000843
:1001300000000000000000000000000000000000BF
:1001400000000000000000000000000000000000AF
:10015000000000000000000000000000000000009F
:10016000000000000000000000000000000000008F
:10017000000000000000000000000000000000007F
:10018000000000000000000000000000000000006F
:10019000000000000000000000000000000000005F
:1001A000000000000000000000000000000000004F
:1001B000000000000000000000000000000000003F
:1001C000000000000000000000000000000000002F
:1001D000000000000000000000000000000000001F
:0401E0005FF8E0F1F3
:1001E4000348044B834202D0034B03B118477047C2
:1001F4001C0000201C000020000000000548064BE5
:100204001B1AD90F01EBA301491002D0034B03B110
:10021400184770471C0000201C000020000000004C
:1002240010B5064C237843B9FFF7DAFF044B13B13A
:100234000448AFF300800123237010BD1C0000208C
:1002440000000000240B000808B5054B1BB105494C
:100254000548AFF30080BDE80840FFF7CFBF00BFFB
:100264000000000020000020240B000882B00023BE
:10027400019300932C4A136843F4803313602A4B90
:100284001B6803F400330093019B01330193009B2B
:100294001BB9019BB3F5A06FF1D1234B1B6813F479
:1002A400003F06D001230093009B012B04D002B031
:1002B400704700230093F7E71C4B1A6842F01002C2
:1002C4001A601A6822F007021A601A6842F00202E1
:1002D4001A60A3F580535A685A605A685A605A687B
:1002E40042F480625A605A6822F47C125A605A6856
:1002F40042F4E8125A601A6842F080721A600A4B9B
:100304001B6813F0007FFAD0074B5A6822F00302EF
:100314005A605A6842F002025A60034B5B6803F069
:100324000C03082BF9D1C2E7001002400020024060
:1003340008B5FFF79BFF08BD08B5104B1A6842F0DB
:1003440001021A6059680E4A0A405A601A6822F07B
:10035400847222F480321A601A6822F480221A60AD
:100364005A6822F4FE025A604FF41F029A60FFF7A3
:10037400DFFF044B4FF000629A6008BD001002409A
:100384000000FFF800ED00E008B54FF4A06000F0B5
:100394008FF800F0F7FA4FF4967000F015FB00F0B8
:1003A40067FA00F025FA074CE36823F00403E360DE
:1003B4004FF47A7000F008FBE36843F00403E36051
:1003C400FEE700BF001401407047FEE7FEE7FEE7CA
:1003D400FEE770477047704730B5CB7803F00F02E3
:1003E400964613F0100F03D091F802E04EEA020E85
:1003F4000B7803B30468002301E042610133072B47
:1004040018D801229A40B1F800C032EA0C05F5D19F
:100414004FEA830C0F2505FA0CF524EA05040EFABD
:100424000CFC4CEA0404CD78282DE6D0482DE5D107
:100434000261E3E704600B88FF2B25D9446800239D
:1004440003E0CD78482D1CD00133072B1BD803F1D2
:10045400080C012202FA0CF2B1F800C032EA0C05D1
:10046400F2D14FEA830C0F2505FA0CF524EA0504B2
:100474000EFA0CFC4CEA0404CD78282DE1D142613B
:10048400DFE70261E0E7446030BD016170470000CE
:10049400034B5B69034201D0012070470020704781
:1004A40000040140014B5861704700BF0004014043
:1004B40040F0BF6040F40030014BD860704700BF8B
:1004C40000ED00E0C378FBB1154BDA68D243C2F308
:1004D4000222C2F1040C0F2323FA02F2417801FA3A
:1004E4000CF1837813400B431B010278DBB20D49F6
:1004F4000A4482F80033037803F01F005B090122E9
:10050400824041F823207047037803F01F015B0900
:1005140001228A402033034941F82320704700BF59
:1005240000ED00E000E100E0042806D04FF0E022F6
:10053400136923F00403136170474FF0E022136939
:1005440043F0040313617047014B00229A60704723
:10055400002C0040C94389B20182704730B587B08E
:1005640004460D46038A9BB2CA8823F440531343BE
:10057400038283899BB2898828896A8901430A4353
:1005840023F4B05323F00C031343A381A38A9BB237
:10059400AA8923F440731343A38201A800F096F8B8
:1005A4001D4B9C4224D0039BA28912F4004F21D1FD
:1005B40003EB830303EB83032A689200B3FBF2F398
:1005C400164AA2FB031252091101642002FB1033E4
:1005D400A28912F4004F16D11B0132330F4AA2FB39
:1005E4000323C3F343130B439BB2238107B030BDF2
:1005F400049BD9E703EB830303EB83032A685200CC
:10060400B3FBF2F3DCE7DB003233044AA2FB03233F
:10061400C3F342130B43E7E7003801401F85EB5156
:1006240029B183899BB243F4005383817047838942
:100634009BB223F400539BB283817047C1F3421CE5
:1006440001F01F01012303FA01F19C4508D0BCF11C
:10065400020F07D014303AB10368194301607047A0
:100664000C30F8E71030F6E7036823EA0101016073
:100674007047C1F3421201F01F0C012303FA0CF37B
:10068400012A0FD0022A11D0828A92B21340090A99
:10069400012202FA01F1028892B20A4053B15AB916
:1006A40000207047828992B21340F0E7028A92B226
:1006B4001340ECE70020704701207047090A01232A
:1006C4008B409BB2DB439BB20380704710B4294B31
:1006D4005B6803F00C03042B2BD0082B2CD013B134
:1006E400254B036001E0244B036022494B68C3F3AC
:1006F4000313224CE35CDAB20368D34043604A68D4
:10070400C2F30222A25CD2B223FA02F282604A68E5
:10071400C2F3C222A25CD2B2D340C3604A68C2F31D
:10072400813217498A5CD2B2B3FBF2F3036110BC85
:100734007047114B0360D8E70E4A53685268C3F3FD
:100744008343023312F4803F04D10E4A02FB03F3C5
:100754000360CAE7074A526812F4003F04D0094A0A
:1007640002FB03F30360C0E7034A02FB03F30360E5
:10077400BBE700BF0010024000127A00080000200E
:100784000400002000093D0021B1054A9369184383
:1007940090617047024A936923EA000090617047B0
:1007A4000010024008B52020FFF772FE00B908BD12
:1007B400044AD36883F48073D3602020FFF772FE69
:1007C400F5E700BF0008014008B54FF40040FFF70B
:1007D4005FFE00B908BD054AD36883F48073D36013
:1007E4004FF40040FFF75EFEF4E700BF000801404D
:1007F40030B583B001212420FFF7C6FF10238DF804
:1008040007304FF48075ADF8045003238DF806309B
:100814000C4C01A92046FFF7DFFD29462046FFF7CF
:1008240034FE0425ADF8045004F540640DEB0501D5
:100834002046FFF7D1FD29462046FFF726FE03B0E8
:1008440030BD00BF0008014000B583B025238DF8FA
:10085400043001238DF8053000228DF806208DF830
:10086400073001A8FFF72EFE03B05DF804FB00007B
:1008740030B587B0012144F20400FFF785FF4FF43F
:100884000073ADF8043018238DF8073003238DF876
:10089400063001AD194C29462046FFF79DFD4FF463
:1008A4008063ADF8043004238DF8073029462046D0
:1008B400FFF792FD4FF4E13302930023ADF80C30BF
:1008C400ADF80E30ADF81030ADF814300C23ADF89F
:1008D400123004F5405402A92046FFF73FFE0122DE
:1008E40040F225512046FFF7A9FEFFF7ADFF012195
:1008F4002046FFF795FE07B030BD00BF0008014059
:1009040008B540F225510B48FFF7B3FE00B908BD06
:10091400094AD36883F48073D36002F54062D368D4
:1009240083F00403D36040F225510248FFF7C6FE6A
:10093400EDE700BF003801400008014008B5084A4F
:10094400D36883F48073D36002F54062D36883F084
:100954000403D36001210348FFF7FCFD08BD00BF79
:10096400000801400010004008B5FFF7EDFD034A00
:10097400D36823F00403D36008BD00BF0014014012
:100984007047000008B54FF0E02300221A616FF0B1
:100994000400FFF7C9FD084B1B68084AA2FB0323A8
:1009A400C3F34753064A1370C3EB431203EB8203AA
:1009B400DA00044B1A8008BD0000002083DE1B43CC
:1009C4003A000020380000200E4B1B8803FB00F087
:1009D4004FF0E023586100229A611A6942F0010243
:1009E4001A614FF0E0231B6903F00113012BF8D0C7
:1009F4004FF0E0231A6922F001021A6100229A6181
:100A0400704700BF38000020002103E00A4B5B5808
:100A14004350043109480A4B42189A42F6D3094A12
:100A240002E0002342F8043B074B9A42F9D3FFF754
:100A340083FCFFF7A9FC7047480B00080000002066
:100A44001C0000201C000020D4010020FEE7000050
:100A5400704700BF704700BF024B13B1024800F05B
:100A640005B87047000000007D0A00080023014615
:100A74001A46184600F014B838B5074D074C2C1B1D
:100A8400A41005D0013C55F8043D9847002CF9D139
:100A9400BDE8384000F04AB8480B0008440B000891
:100AA4002DE9F8431B4D0646286898460F469146A3
:100AB400FFF7CEFF184B1C681CB3286865681F2D10
:100AC40022DC4EB96B1C0235636044F82570FFF7D5
:100AD400C1FF0020BDE8F883012304EB8501C1F8C0
:100AE4008890D4F88821AB401A43022EC4F8882198
:100AF400C1F80881E6D1D4F88C211A43C4F88C21BA
:100B0400E0E7064C1C60D8E7FFF7A4FF4FF0FF3086
:100B1400E0E700BF1800002040000020440000204F
:100B2400F8B500BFF8BC08BC9E467047F8B500BFD6
:080B3400F8BC08BC9E467047A6
:080B3C005D0A00084D020008EB
:040B4400250200087E
:100B480000A24A040204060800000000010203048F
:0C0B580001020304060708093C0000200D
:0400000508000A0DD8
:00000001FF
