:020000040800F2
:1000000000C000205D130008150500081705000852
:10001000190500081B0500081D0500080000000068
:10002000000000000000000000000000610B00085C
:100030001F05000800000000C10B00082D0B000880
:10004000A10A0008A1130008A1130008A1130008C9
:10005000A1130008A1130008A1130008A1130008B0
:10006000A1130008A1130008A1130008A1130008A0
:10007000A1130008A1130008A1130008A113000890
:10008000A1130008A1130008A1130008A113000880
:10009000A1130008A1130008A1130008DD0800083F
:1000A000A1130008A1130008A1130008A113000860
:1000B000A1130008A1130008A1130008A113000850
:1000C000A1130008A1130008A1130008A113000840
:1000D000A1130008390A0008A1130008A1130008A1
:1000E00001090008A1130008A1130008A1130008CA
:1000F000A1130008A1130008A1130008A113000810
:10010000A1130008A1130008A1130008A1130008FF
:10011000A1130008A1130008750A0008A113000824
:10012000A1130008A1130008A1130008A1130008DF
:1001300000000000000000000000000000000000BF
:1001400000000000000000000000000000000000AF
:10015000000000000000000000000000000000009F
:10016000000000000000000000000000000000008F
:10017000000000000000000000000000000000007F
:10018000000000000000000000000000000000006F
:10019000000000000000000000000000000000005F
:1001A000000000000000000000000000000000004F
:1001B000000000000000000000000000000000003F
:1001C000000000000000000000000000000000002F
:1001D000000000000000000000000000000000001F
:0401E0005FF8E0F1F3
:1001F0000348044B834202D0034B03B118477047B6
:100200006000002060000020000000000548064B50
:100210001B1AD90F01EBA301491002D0034B03B104
:1002200018477047600000206000002000000000B8
:1002300010B5064C237843B9FFF7DAFF044B13B12E
:100240000448AFF300800123237010BD600000203C
:1002500000000000901C000808B5054B1BB10549C3
:100260000548AFF30080BDE80840FFF7CFBF00BFEF
:100270000000000064000020901C000882B00023F1
:10028000019300932C4A136843F4803313602A4B84
:100290001B6803F400330093019B01330193009B1F
:1002A0001BB9019BB3F5A06FF1D1234B1B6813F46D
:1002B000003F06D001230093009B012B04D002B025
:1002C000704700230093F7E71C4B1A6842F01002B6
:1002D0001A601A6822F007021A601A6842F00202D5
:1002E0001A60A3F580535A685A605A685A605A686F
:1002F00042F480625A605A6822F47C125A605A684A
:1003000042F4E8125A601A6842F080721A600A4B8E
:100310001B6813F0007FFAD0074B5A6822F00302E3
:100320005A605A6842F002025A60034B5B6803F05D
:100330000C03082BF9D1C2E7001002400020024054
:1003400008B5FFF79BFF08BD08B5104B1A6842F0CF
:1003500001021A6059680E4A0A405A601A6822F06F
:10036000847222F480321A601A6822F480221A60A1
:100370005A6822F4FE025A604FF41F029A60FFF797
:10038000DFFF044B4FF000629A6008BD001002408E
:100390000000FFF800ED00E04FF0FF307047000074
:1003A00070B50E46154600240AE08021064800F08C
:1003B000F8F90028F9D0315D034800F0EAF901347A
:1003C000AC42F2DB284670BD0038014070B50E46E5
:1003D00015460024AC420FDA2021084800F0E1F96C
:1003E0000028F9D0054800F0D8F90A2802D0305585
:1003F0000134EFE700233355204670BD003801403B
:10040000002070474FF400534B60002070470120DC
:10041000704700000346084A126832B1064A106865
:100420000344064A934204D9FEE7034A0449116093
:10043000F4E7014A136070477C00002000C00020F0
:10044000C00C0020FEE7000008B5044801F0C4F825
:100450004FF4FA7000F0E2FEF7E700BFA81C0008B6
:1004600008B5044801F0B8F84FF4FA7000F0D6FE71
:10047000F7E700BFB41C000810B584B04FF440701B
:1004800000F0B8F800F090FA00F04EFA144B029326
:10049000144B019303230093002380221249134835
:1004A00000F016FD0446124B0293124B01930223F7
:1004B0000093002380221049104800F009FD104BE2
:1004C0000293104B01930023009380220E490F48A2
:1004D00000F0FEFC0E4B1C6000F014FDFEE700BFB8
:1004E000C800002050030020C01C00084904000878
:1004F0008400002050010020C81C0008610400088E
:100500000C01002050050020D01C00084504000804
:10051000800000207047FEE7FEE7FEE7FEE7704739
:1005200030B5CB7803F00F02964613F0100F03D0CE
:1005300091F802E04EEA020E0B78FBB10568002349
:1005400001E042610133072B17D801229A40B1F82C
:1005500000C032EA0C0CF5D19C004FF00F0C0CFAE5
:1005600004FC25EA0C050EFA04F42543CC78282C6B
:10057000E7D0482CE6D10261E4E705600B88FF2B49
:1005800025D94568002303E0CC78482C1CD00133E2
:10059000072B1BD803F1080C012202FA0CF2B1F868
:1005A00000C032EA0C0CF2D19C004FF00F0C0CFA98
:1005B00004FC25EA0C0C0EFA04F444EA0C05CC7891
:1005C000282CE1D14261DFE70261E0E7456030BD00
:1005D00001617047034B5B69034201D00120704702
:1005E0000020704700040140014B5861704700BF74
:1005F0000004014040F0BF6040F40030014BD8607F
:10060000704700BF00ED00E0C378F3B1144BDB6826
:10061000DB43C3F30223C3F1040C0F21D94042781A
:1006200002FA0CF283780B40134302781B01DBB211
:100630000C490A4482F80033037803F01F005B0979
:100640000122824041F823207047037803F01F0104
:100650005B0901228A402033024941F82320704778
:1006600000ED00E000E100E0014B00229A607047DD
:10067000002C0040C94389B20182704730B587B071
:1006800004460D46038A9BB2CA8823F440531343A1
:10069000038283899BB2898828896A8901430A4336
:1006A00023F4B05323F00C031343A381A38A9BB21A
:1006B000AA8923F440731343A38201A800F0A6F88B
:1006C0001D4B9C4224D0039BA28912F4004F21D1E0
:1006D00003EB830303EB83032A689200B3FBF2F37B
:1006E000164AA2FB031252091101642002FB1033C7
:1006F000A28912F4004F16D11B0132330F4AA2FB1C
:100700000323C3F343130B439BB2238107B030BDD4
:10071000049BD9E703EB830303EB83032A685200AE
:10072000B3FBF2F3DCE7DB003233044AA2FB032322
:10073000C3F342130B43E7E7003801401F85EB5139
:1007400029B183899BB243F4005383817047838925
:100750009BB223F400539BB283817047C1F3421CC8
:1007600001F01F0101238B40BCF1010F08D0BCF147
:10077000020F07D014303AB1026813430360704788
:100780000C30F8E71030F6E7026822EA0303036052
:100790007047C1F30801818070478088C0F308006A
:1007A00070470388194201D001207047002070472C
:1007B000C1F3421201F01F0C012303FA0CF3012ACA
:1007C0000FD0022A11D0828A92B21340090A012264
:1007D00002FA01F1028892B20A4053B15AB90020DC
:1007E0007047828992B21340F0E7028A92B21340B6
:1007F000ECE70020704701207047090A01238B4075
:100800009BB2DB439BB203807047000010B4274BC0
:100810005B6803F00C03042B25D0082B26D0002B9B
:1008200041D1234B0360214A5368C3F30313214C86
:10083000E15C0368CB4043605168C1F30221615C15
:1008400023FA01F181605168C1F3C221615CCB40A0
:10085000C3605268C2F3813217498A5CB3FBF2F37A
:10086000036110BC7047124B0360DCE70F4A53680A
:100870005268C3F38343023312F4803F04D10F4A1A
:1008800002FB03F30360CEE7084A526812F4003F0C
:1008900004D00A4A02FB03F30360C4E7044A02FBE4
:1008A00003F30360BFE7024B0360BCE700100240A4
:1008B00000127A00DC1C0008D81C000800093D006A
:1008C00021B1054A9369034393617047024A9369D2
:1008D00023EA0003936170470010024008B520200E
:1008E000FFF778FE00B908BD044AD36883F480732B
:1008F000D3602020FFF778FEF5E700BF0008014035
:1009000008B54FF40040FFF765FE00B908BD054A81
:10091000D36883F48073D3604FF40040FFF764FE24
:10092000F4E700BF0008014070B582B00121242027
:10093000FFF7C6FF10238DF807304FF48075ADF830
:10094000045003238DF8063001AE0C4C314620468E
:10095000FFF7E6FD29462046FFF73AFE0425ADF8ED
:10096000045004F5406431462046FFF7D9FD29467E
:100970002046FFF72DFE02B070BD00BF0008014009
:1009800000B583B025238DF8043003238DF805309E
:1009900000238DF8063001238DF8073001A8FFF7FA
:1009A00033FE03B05DF804FB30B587B0012144F29B
:1009B0000400FFF785FF4FF40073ADF804301823EF
:1009C0008DF8073003238DF8063001AD194C294608
:1009D0002046FFF7A5FD4FF48063ADF804300423F3
:1009E0008DF8073029462046FFF79AFD4FF4E13392
:1009F00002930023ADF80C30ADF80E30ADF8103096
:100A0000ADF814300C23ADF8123004F5405402A9AF
:100A10002046FFF733FE012240F225512046FFF722
:100A20009DFEFFF7ADFF01212046FFF789FE07B0CD
:100A300030BD00BF0008014008B540F225510B4809
:100A4000FFF7B6FE00B908BD094AD36883F4807386
:100A5000D36002F54062D36883F00403D36040F2B0
:100A600025510248FFF7C9FEEDE700BF00380140FD
:100A70000008014008B5084AD36883F48073D36046
:100A800002F54062D36883F00403D3600121034878
:100A9000FFF7F0FD08BD00BF000801400010004056
:100AA00008B5FFF7E1FD034AD36823F00403D360E0
:100AB00008BD00BF001401404FF0500383F31188BC
:100AC000BFF36F8FBFF34F8FFEE70000064800684B
:100AD000006880F3088862B661B6BFF34F8FBFF33A
:100AE0006F8F00DF00BF000008ED00E0704700BF1F
:100AF0004FF0807140F8041C22F0010240F8082CED
:100B0000034A40F80C2C40F8203C4038704700BFA6
:100B1000B90A00084FF0E02300221A619A61024AE4
:100B20005A6107221A6170473F19010008B54FF05A
:100B3000500383F31188BFF36F8FBFF34F8F00F023
:100B40000BFA28B14FF0E0234FF08052C3F8042D88
:100B5000002383F3118808BD00000000000000009E
:100B6000074B19680868B0E8F00F80F30988BFF3F5
:100B70006F8F4FF0000080F311884EF00D0E70471C
:100B800080000020704700BF08B54FF0E023D3F885
:100B9000202D42F47F02C3F8202DD3F8202D42F0FF
:100BA0007F42C3F8202D0024C3F81C4DFFF7B2FF8D
:100BB000024B1C60FFF78AFFFFF77EFF000000205A
:100BC000EFF30980BFF36F8F0D4B1A6820E9F00F28
:100BD000106008B54FF0500080F3118800F038FB2A
:100BE0004FF0000080F31188BDE8084019680868DC
:100BF000B0E8F00F80F30988BFF36F8F704700BF34
:100C000080000020704700BF4FF0500383F311882D
:100C1000BFF36F8FBFF34F8F0B4A1368013313601D
:100C2000012B00D070474FF0E023D3F8043D13F0C0
:100C3000FF0FF7D04FF0500383F31188BFF36F8F8E
:100C4000BFF34F8FFEE700BF00000020094B1B6879
:100C500043B94FF0500383F31188BFF36F8FBFF395
:100C60004F8FFEE7013B034A13600BB983F31188F2
:100C7000704700BF0000002001207047074B1B6831
:100C80001B6823B9064B4FF0FF321A607047034BC5
:100C90001B68DB681A68024B1A6070477C070020EB
:100CA000580700202DE9F04106461F460698DDF85A
:100CB0001C80089C256B02F18042013A05EB8205FD
:100CC00025F0070571B10B4600210F2907D85A5CA2
:100CD00004EB010C8CF834200AB10131F5E7002354
:100CE00084F843301F2800D91F20E062201D00F047
:100CF000FBFA04F1180000F0F7FA24616462E36A79
:100D0000C3F12003A3613B463246216B2846FFF71F
:100D1000EFFE2060B8F1000F01D0C8F80040BDE838
:100D2000F08100002DE9F04104460D461B4B1E6882
:100D30001B4B1F681B4BD3F800801B4B18680430FB
:100D400000F0FBFAB4F1FF3F0BD03444164B1968A6
:100D50004C60A64216D90431404600F0D4FABDE8F2
:100D6000F081002DF1D0114B59680F4A1268916043
:100D70008C68D460101D6060886053611A6801320D
:100D80001A60ECE70431384600F0BDFA084B1B68E6
:100D9000A342E4D9064B1C60E1E700BF60070020D6
:100DA0007C07002078070020800000209C0700209E
:100DB0005807002038B5002407E0C4EBC4029300B4
:100DC0000B48184400F093FA01341F2CF5D9094D53
:100DD000284600F08CFA084C204600F088FA0748B4
:100DE00000F085FA064B1D60064B1C6038BD00BF45
:100DF000F0070020D4070020B8070020800700205B
:100E00007C0700207807002010B50446FFF7FCFEA1
:100E1000294A136801331360284B1B684BB1284AD9
:100E200012685AB9DA6AE36A9A4207D8234B1C60FF
:100E300004E0224B1C601368012B39D0214A13684F
:100E400001331360E36A204A1268934201D91E4AB3
:100E500013601E4AC3EBC30302EB83035B68A3600A
:100E60009868E060211D41609960E36AC3EBC301AB
:100E700002EB8100606152F821100131C3EBC30322
:100E800042F82310FFF7E2FE0D4B1B687BB10B4BC2
:100E90001B68DA6AE36A9A4209D24FF0E0234FF006
:100EA0008052C3F8042DBFF34F8FBFF36F8F10BD77
:100EB000FFF780FFC2E700BF74070020800000201A
:100EC000700700206C07002068070020F007002052
:100ED00030B587B00B9D0C9C74B16DB125630025B6
:100EE0000395029405AD01950A9D0095FFF7DAFE82
:100EF0002046FFF789FF01E000230593059807B01E
:100F000030BD000008B5FFF7B7FE012809D0E0B9F1
:100F10004FF0500383F31188BFF36F8FBFF34F8FF0
:100F2000FEE74FF0500383F31188BFF36F8FBFF3D9
:100F30004F8F064B4FF0FF321A60054B01221A60AB
:100F4000044B00221A60FFF71FFE08BD580700205F
:100F500070070020600700204C4B1B68002B40F0FE
:100F60008C8070B54A4B1C6801341C60A4B1494B9D
:100F70001B68A3421DD90020474B1B68DB6AC3EBEB
:100F8000C3039A00454B9B58012B00D90120444BC9
:100F90001B68002B77D170BD424A1168424B18681C
:100FA00010601960414A136801331360FFF766FE51
:100FB000DDE7002036E0374B4FF0FF321A60DBE709
:100FC000344B1A60D8E7566042E0002199621168FC
:100FD00001391160DA6A364909688A4201D934490F
:100FE0000A602E49C2EBC2024FEA820C8C44DCF844
:100FF00004209A609668DE6075609560DA6AC2EBDC
:10100000C20C4FEA8C056E185E614D5901354FEAEE
:101010008C0C41F80C50DA6A1F4B1B68DB6A9A4251
:1010200000D901201F4B1B681B68002BC3D01D4B30
:101030001B68DB68DB685A689442C1D35A69DD6873
:1010400099686960DE688E6051681D1DA942BAD03A
:10105000002159611168013911609A6A002AB9D0DA
:101060001E6AD96971601E6A8E6003F11801D2F898
:1010700004C08C45A9D15660A7E70E4A1368013316
:10108000136000207047012085E700BF5007002053
:10109000600700205807002080000020F007002093
:1010A000540700207C070020780700205C07002000
:1010B0006807002064070020024A136801331360A8
:1010C000704700BF5007002010B5FFF79DFD4B4B48
:1010D0001B6843B94FF0500383F31188BFF36F8F40
:1010E000BFF34F8FFEE7454B1A68013A1A601B6841
:1010F000002B7DD1424B1B682BB9002479E0506056
:1011000014E0546021E000233E4A1268002A4AD0CD
:101110003C4BDB68DB689A6A186AD9694160186AD7
:101120008860546803F118018C42E8D0002199626C
:101130001168013911605A69D86899684160DC68A2
:101140008C605168181D8142DBD000215961116803
:1011500001391160DA6A2C4909688A4201D92A49A1
:101160000A602A49C2EBC20201EB820252689A600D
:101170009468DC6060609060DA6AC2EBC20001EBE8
:1011800080045C6151F820000130C2EBC20241F8DA
:101190002200D96A1E4A1268D26A9142B4D91D4A05
:1011A00001211160B0E70BB1FFF768FD1A4B1C6815
:1011B0003CB9184B1C68012C0FD0002419E0013CED
:1011C00007D0FFF7C9FE0028F9D0124B01221A60A0
:1011D000F5E7114B00221A60EBE74FF0E0234FF0E8
:1011E0008052C3F8042DBFF34F8FBFF36F8F00E021
:1011F0000024FFF72BFD204610BD00BF5007002044
:10120000740700208007002068070020F0070020F6
:1012100080000020540700206407002010B550B95A
:101220004FF0E0234FF08052C3F8042DBFF34F8FEF
:10123000BFF36F8F10BD0446FFF73EFF002120462D
:10124000FFF770FDFFF740FF0028F3D1E8E700004B
:10125000204B1B681BB1204B01221A6070471E4BAC
:1012600000221A601D4B1B68C3EBC3018A001C4996
:101270008A585AB90BB1013BF6E74FF0500383F39C
:101280001188BFF36F8FBFF34F8FFEE70846C3EBA4
:10129000C3018A000244516849685160C3EBC30C22
:1012A0004FEA8C020832024491420BD0C3EBC302D6
:1012B00091000B4A0A445268D1680A4A1160074AF1
:1012C000136070476246910002460A44D16851603B
:1012D000ECE700BF500700205407002068070020FB
:1012E000F00700208000002000230361704700F118
:1012F000080343604FF0FF328260C3600361806186
:1013000000230360704730B40D68B5F1FF3F12D081
:1013100000F108031C465B681A68AA42FAD96368A0
:101320004B608C6063689960616008610368013399
:10133000036030BC70470469F1E703698168426863
:101340004A60816891605A68824205D00022026139
:1013500018680138186070475960F7E7002103E00A
:101360000A4B5B584350043109480A4B42189A42D1
:10137000F6D3094A02E0002342F8043B074B9A42A5
:10138000F9D3FEF7E1FFFFF777F87047F41C000888
:10139000000000206000002060000020BC0C002045
:1013A000FEE70000002310B50446C0E90033C0E9A1
:1013B0000433836081814366C281836119460822B8
:1013C0005C3000F0E7F90D4B246263620C4BA362C2
:1013D0000C4BE3620C4B23630C4B9C4206D003F195
:1013E0006802944202D0D0339C4205D104F15800E7
:1013F000BDE8104000F01CBA10BD00BFE9150008A0
:101400000B1600084316000869160008700B002030
:10141000024A0349034800F06BB800BF04000020F3
:10142000211B00081400002041680C4B10B59942A4
:10143000044601D000F074FBA168094B994202D028
:10144000204600F06DFBE168064B994204D020462F
:10145000BDE8104000F064BB10BD00BF700B002061
:10146000D80B0020400C00200C4B0D4A10B5042175
:101470001A600C480022FFF795FF0A4B01221C4618
:10148000092103F16800FFF78DFF04F1D00002226B
:10149000BDE810401221FFF785BF00BFA80C002057
:1014A00011140008700B0020014800F0C2B900BF01
:1014B000B10C0020014800F0BDB900BFB10C002004
:1014C00010B50446FFF7F0FF236A1BB1BDE81040DA
:1014D000FFF7F0BF044B2362044B1B68002BF5D1D0
:1014E000FFF7C2FFF2E700BF29140008A80C002094
:1014F0002DE9F8430746884614460026D4E90195AD
:10150000B9F1010905D52468002CF7D13046BDE8B2
:10151000F883AB89012B07D9B5F90E30013303D01D
:1015200029463846C04706436835E9E7036A70B57F
:1015300005460E4684680BB9FFF7C2FF636EDB07F2
:1015400005D4A389980502D4A06D00F072F9A3898F
:10155000190702D52369002B35D12146284600F012
:10156000C5F880B34FF0FF35636EDA0705D4A38961
:101570009B0502D4A06D00F05DF9284670BD002BDC
:1015800004DAA269934217DB0A2915D023685A1C92
:1015900022601970A36816F8011F013BA36000299F
:1015A000EDD1002B11DA22460A21284600F060F81E
:1015B0000130D7D00A25D7E72246284600F058F850
:1015C0000130E7D1CEE7013EE4E723685A1C2260F0
:1015D0000A221A70EEE70000024B01461868FFF776
:1015E000A5BF00BF1000002010B50C46B1F90E10C9
:1015F00000F0FAF80028ABBF636DA3891B1823F431
:101600008053ACBF6365A38110BD2DE9F0411F4637
:101610008B890546DB050C46164605D502230022BC
:10162000B1F90E1000F0CEF8A389324623F48053AE
:10163000A38128463B46B4F90E10BDE8F04100F006
:10164000E5B810B50C46B1F90E1000F0BBF8B4F9CE
:101650000C30421C0BBF23F4805343F48053A3810E
:10166000A38118BF606510BDB1F90E1000F09AB8E3
:10167000F8B50E461446054618B1036A0BB9FFF7D4
:101680001FFFA369A360A3891A0701D5236943B982
:101690002146284600F02AF818B14FF0FF373846A7
:1016A000F8BD23682269F6B2981A63693746834207
:1016B00005DC2146284600F033FA0028EDD1A36866
:1016C000013BA36023685A1C22601E706269431CA0
:1016D0009A4204D0A389DB07E1D50A2EDFD1214647
:1016E000284600F01DFA0028D9D0D6E738B5284B97
:1016F000054618680C4618B1036A0BB9FFF7E0FEFF
:10170000B4F90C301A0721D4D80607D409222A606C
:1017100043F040034FF0FF30A38130E0590712D56A
:10172000616B41B104F14403994202D0284600F0B4
:1017300083F8002363630022B4F90C3062602269ED
:1017400023F02403226043F00803A38122693AB9FD
:101750009A0501D5180603D52146284600F02CFA33
:10176000B4F90C3013F001020AD00022A2606269C1
:101770005242A261226942B913F08000C8D138BD3B
:10178000990758BF6269A260F4E70020F7E700BF3D
:101790001000002003460244934200D1704703F832
:1017A000011BF9E738B50023054D044608462B60B8
:1017B000FEF7F2FD431C02D12B6803B1236038BD54
:1017C000AC0C002038B50446084611460022054DF1
:1017D0002A601A46FEF714FE431C02D12B6803B19F
:1017E000236038BDAC0C002038B5044608461146CD
:1017F0000022054D2A601A46FEF7E8FD431C02D17F
:101800002B6803B1236038BDAC0C002038B504460A
:10181000084611460022054D2A601A46FEF7C0FD13
:10182000431C02D12B6803B1236038BDAC0C0020EF
:10183000704770477047000038B50546002940D012
:1018400051F8043C0C1F002BB8BFE41800F0DEF880
:101850001C4A136833B9636014602846BDE83840F9
:1018600000F0DAB8A34208D9206821188B4201BFE2
:1018700019685B6809182160EDE71A465B680BB1CF
:10188000A342FAD911685018A0420BD12068014434
:10189000501883421160E0D118685B6808441060FA
:1018A0005360DAE702D90C232B60D6E720682118B1
:1018B0008B4201BF19685B6809182160636054603E
:1018C000CBE738BDB80C002070B50F4E0C46316820
:1018D000054611B900F0CCF930602146284600F0E9
:1018E000C7F9431C03D14FF0FF34204670BDC41C20
:1018F00024F00304A042F8D0211A284600F0B8F9D9
:101900000130F2D1EFE700BFB40C00202DE9F8431D
:10191000CD1C25F0030508350C2D38BF0C25002DF6
:10192000064601DBA94204D90C2333600020BDE840
:10193000F883DFF8D48000F069F8D8F800301C464E
:1019400044BB29463046FFF7BFFF431C044658D12D
:10195000D8F800402746002F43D1002C4BD02368F5
:101960003946304604EB030900F082F9814542D143
:10197000216830466D1A2946FFF7A6FF01303AD09C
:1019800023682B442360D8F800305A6862BBC8F83B
:1019900000700FE02268521B20D40B2A17D961195E
:1019A000A342256018BF5960636808BFC8F80010DB
:1019B00062514B60304600F02FF804F10B00231DFC
:1019C00020F00700C21A1CBF1B1AA350AFE76268C1
:1019D000A3420CBFC8F800205A60EBE723466468B6
:1019E000AEE73C467F68B6E71A465B68A342FBD188
:1019F00000235360DEE70C233046336000F00CF820
:101A000094E70560D6E700BFB80C00200148FFF757
:101A100010BF00BFB00C00200148FFF70BBF00BF94
:101A2000B00C0020B1F90C20F8B5160705460C469D
:101A300051D44B68002B02DC0B6C002B49DDE66AAD
:101A4000002E46D0002312F480522F682B6031D034
:101A5000626DA389590705D56368D21A636B0BB110
:101A6000236CD21A00232846E66A216AB047421C3A
:101A7000B4F90C3006D129681D2945D8274ACA4037
:101A8000D60741D5002262602269D904226004D5BC
:101A9000421C01D12B6803B96065616B2F60C1B135
:101AA00004F14403994202D02846FFF7C5FE002303
:101AB00063630EE001232846216AB0470246501CAA
:101AC000C7D12B68002BC4D01D2B01D0162B19D1E8
:101AD0002F6000201DE00F69002FFAD0930718BF78
:101AE00000230E6808BF4B69F61B0F608B60002E49
:101AF000EFDD33463A462846216AD4F828C0E0474D
:101B0000002807DCB4F90C304FF0FF3043F04003FD
:101B1000A381F8BD0744361AE9E700BF0100402061
:101B200038B50B6905460C4613B90025284638BD63
:101B300018B1036A0BB9FFF7C3FCB4F90C30002BE2
:101B4000F3D0626ED00704D4990502D4A06DFFF7DC
:101B500070FE28462146FFF765FF636E0546DA07EB
:101B6000E4D4A3899B05E1D4A06DFFF763FEDDE714
:101B700070B50C46B1F90E10154600291E4696B0F8
:101B80000ADAA18911F0800113D14FF4806200209C
:101B900031602A6016B070BD6A4600F047F8002830
:101BA000EFDB019901F47041A1F50053594259410D
:101BB000EBE700214022EAE78B8973B59E070546D3
:101BC0000C4607D504F147032360236101236361B9
:101BD00002B070BD01AB6A46FFF7CAFF009E2846FF
:101BE0003146FFF793FEB4F90C3038B99A05EFD4BB
:101BF00023F0030343F00203A381E3E743F08003F0
:101C0000A381019BC4E904062060002BE0D0284694
:101C1000B4F90E1000F01CF80028D9D0A38923F0E5
:101C2000030343F00103A381D2E7000038B500238A
:101C3000064D0446084611462B60FEF7E3FB431CA5
:101C400002D12B6803B1236038BD00BFAC0C00206B
:101C500038B50023054D044608462B60FEF7D7FB38
:101C6000431C02D12B6803B1236038BDAC0C0020AB
:101C700038B50023054D044608462B60FEF7CAFB25
:101C8000431C02D12B6803B1236038BDAC0C00208B
:101C9000F8B500BFF8BC08BC9E467047F8B500BF59
:081CA000F8BC08BC9E46704729
:101CA80048656C6C6F2049276D20310048656C6C65
:101CB8006F2049276D2032005461736B310000009A
:101CC8005461736B3200000049646C6500000000C9
:101CD80002040608000000000102030401020304D4
:041CE80006070809DA
:041CEC005902000891
:041CF00031020008B5
:101CF400AAAAAAAA0000000003000000700B00209A
:101D04001400002000000000700B0020D80B0020FD
:101D1400400C002000000000000000000000000053
:101D240000000000000000000000000000000000AF
:101D3400000000000000000000000000000000009F
:101D4400000000000000000000000000000000008F
:040000050800135D7F
:00000001FF
