:020000040800F2
:1000000000C00020FD090008CD030008CF03000850
:10001000D1030008D3030008D50300080000000046
:10002000000000000000000000000000D7030008EE
:10003000D903000800000000DB0300087509000870
:100040005D090008410A0008410A0008410A000849
:10005000410A0008410A0008410A0008410A000854
:10006000410A0008410A0008410A0008410A000844
:10007000410A0008410A0008410A0008410A000834
:10008000410A0008410A0008410A0008410A000824
:10009000410A0008410A0008410A000899070008BF
:1000A000410A0008410A0008410A0008410A000804
:1000B000410A0008410A0008410A0008410A0008F4
:1000C000410A0008410A0008410A0008410A0008E4
:1000D000410A0008F5080008410A0008410A000822
:1000E000BD070008410A0008410A0008410A00084B
:1000F000410A0008410A0008410A0008410A0008B4
:10010000410A0008410A0008410A0008410A0008A3
:10011000410A0008410A000831090008410A0008A4
:10012000410A0008410A0008410A0008410A000883
:1001300000000000000000000000000000000000BF
:1001400000000000000000000000000000000000AF
:10015000000000000000000000000000000000009F
:10016000000000000000000000000000000000008F
:10017000000000000000000000000000000000007F
:10018000000000000000000000000000000000006F
:10019000000000000000000000000000000000005F
:1001A000000000000000000000000000000000004F
:1001B000000000000000000000000000000000003F
:1001C000000000000000000000000000000000002F
:1001D000000000000000000000000000000000001F
:0401E0005FF8E0F1F3
:1001E4000348044B834202D0034B03B118477047C2
:1001F4000400002004000020000000000548064B15
:100204001B1AD90F01EBA301491002D0034B03B110
:10021400184770470400002004000020000000007C
:1002240010B5064C237843B9FFF7DAFF044B13B13A
:100234000448AFF300800123237010BD04000020A4
:1002440000000000440A000808B5054B1BB105492D
:100254000548AFF30080BDE80840FFF7CFBF00BFFB
:100264000000000008000020440A000882B00023B7
:10027400019300932C4A136843F4803313602A4B90
:100284001B6803F400330093019B01330193009B2B
:100294001BB9019BB3F5A06FF1D1234B1B6813F479
:1002A400003F06D001230093009B012B04D002B031
:1002B400704700230093F7E71C4B1A6842F01002C2
:1002C4001A601A6822F007021A601A6842F00202E1
:1002D4001A60A3F580535A685A605A685A605A687B
:1002E40042F480625A605A6822F47C125A605A6856
:1002F40042F4E8125A601A6842F080721A600A4B9B
:100304001B6813F0007FFAD0074B5A6822F00302EF
:100314005A605A6842F002025A60034B5B6803F069
:100324000C03082BF9D1C2E7001002400020024060
:1003340008B5FFF79BFF08BD08B5104B1A6842F0DB
:1003440001021A6059680E4A0A405A601A6822F07B
:10035400847222F480321A601A6822F480221A60AD
:100364005A6822F4FE025A604FF41F029A60FFF7A3
:10037400DFFF044B4FF000629A6008BD001002409A
:100384000000FFF800ED00E008B54FF4A06000F0B5
:100394008DF800F0EFFA4FF4967000F00DFB00F0CA
:1003A4005FFA00F01DFA074CE36823F00403E360EE
:1003B4004FF47A7000F000FBE36843F00403E36059
:1003C400FEE700BF001401407047FEE7FEE7FEE7CA
:1003D400FEE770477047704730B5CB7803F00F02E3
:1003E400964613F0100F03D091F802E04EEA020E85
:1003F4000B78FBB10568002301E042610133072B50
:1004040017D801229A40B1F800C032EA0C0CF5D199
:100414009C004FF00F0C0CFA04FC25EA0C050EFAB4
:1004240004F42543CC78282CE7D0482CE6D102618B
:10043400E4E705600B88FF2B25D94568002303E01A
:10044400CC78482C1CD00133072B1BD803F1080CA3
:10045400012202FA0CF2B1F800C032EA0C0CF2D11B
:100464009C004FF00F0C0CFA04FC25EA0C0C0EFA5D
:1004740004F444EA0C05CC78282CE1D14261DFE78E
:100484000261E0E7456030BD01617047034B5B6981
:10049400034201D00120704700207047000401404E
:1004A400014B5861704700BF0004014040F0BF6039
:1004B40040F40030014BD860704700BF00ED00E00D
:1004C400C378F3B1144BDB68DB43C3F30223C3F1FA
:1004D400040C0F21D940427802FA0CF283780B40C5
:1004E400134302781B01DBB20C490A4482F800333F
:1004F400037803F01F005B090122824041F82320A6
:100504007047037803F01F015B0901228A402033FE
:10051400024941F82320704700ED00E000E100E0CB
:10052400042806D04FF0E022136923F0040313617A
:1005340070474FF0E022136943F0040313617047DE
:10054400014B00229A607047002C0040C94389B2D5
:100554000182704730B587B004460D46038A9BB2CA
:10056400CA8823F440531343038283899BB2898846
:1005740028896A8901430A4323F4B05323F00C0306
:100584001343A381A38A9BB2AA8923F44073134320
:10059400A38201A800F096F81D4B9C4224D0039B33
:1005A400A28912F4004F21D103EB830303EB8303ED
:1005B4002A689200B3FBF2F3164AA2FB0312520913
:1005C4001101642002FB1033A28912F4004F16D1EA
:1005D4001B0132330F4AA2FB0323C3F343130B4320
:1005E4009BB2238107B030BD049BD9E703EB83039F
:1005F40003EB83032A685200B3FBF2F3DCE7DB006E
:100604003233044AA2FB0323C3F342130B43E7E749
:10061400003801401F85EB5129B183899BB243F413
:1006240000538381704783899BB223F400539BB2A8
:1006340083817047C1F3421C01F01F0101238B40E9
:10064400BCF1010F08D0BCF1020F07D014303AB14D
:1006540002681343036070470C30F8E71030F6E784
:10066400026822EA030303607047C1F3421201F0F7
:100674001F0C012303FA0CF3012A0FD0022A11D014
:10068400828A92B21340090A012202FA01F1028815
:1006940092B20A4053B15AB900207047828992B28B
:1006A4001340F0E7028A92B21340ECE7002070474F
:1006B40001207047090A01238B409BB2DB439BB2A4
:1006C4000380704710B4274B5B6803F00C03042BC2
:1006D40025D0082B26D0002B41D1234B0360214A7F
:1006E4005368C3F30313214CE15C0368CB404360BC
:1006F4005168C1F30221615C23FA01F18160516800
:10070400C1F3C221615CCB40C3605268C2F3813241
:1007140017498A5CB3FBF2F3036110BC7047124BB8
:100724000360DCE70F4A53685268C3F38343023320
:1007340012F4803F04D10F4A02FB03F30360CEE7B7
:10074400084A526812F4003F04D00A4A02FB03F339
:100754000360C4E7044A02FB03F30360BFE7024BF0
:100764000360BCE70010024000127A00600A00082F
:100774005C0A000800093D0021B1054A936903435E
:1007840093617047024A936923EA000393617047B7
:100794000010024008B52020FFF778FE00B908BD1C
:1007A400044AD36883F48073D3602020FFF778FE73
:1007B400F5E700BF0008014008B54FF40040FFF71B
:1007C40065FE00B908BD054AD36883F48073D3601D
:1007D4004FF40040FFF764FEF4E700BF0008014057
:1007E40070B582B001212420FFF7C6FF10238DF8D5
:1007F40007304FF48075ADF8045003238DF80630AC
:1008040001AE0C4C31462046FFF7E6FD2946204652
:10081400FFF73AFE0425ADF8045004F54064314670
:100824002046FFF7D9FD29462046FFF72DFE02B0EA
:1008340070BD00BF0008014000B583B025238DF8CA
:10084400043001238DF8053000228DF806208DF840
:10085400073001A8FFF734FE03B05DF804FB000085
:1008640030B587B0012144F20400FFF785FF4FF44F
:100874000073ADF8043018238DF8073003238DF886
:10088400063001AD194C29462046FFF7A5FD4FF46B
:100894008063ADF8043004238DF8073029462046E0
:1008A400FFF79AFD4FF4E13302930023ADF80C30C7
:1008B400ADF80E30ADF81030ADF814300C23ADF8AF
:1008C400123004F5405402A92046FFF743FE0122EA
:1008D40040F225512046FFF7ADFEFFF7ADFF0121A1
:1008E4002046FFF799FE07B030BD00BF0008014065
:1008F40008B540F225510B48FFF7B7FE00B908BD13
:10090400094AD36883F48073D36002F54062D368E4
:1009140083F00403D36040F225510248FFF7CAFE76
:10092400EDE700BF003801400008014008B5084A5F
:10093400D36883F48073D36002F54062D36883F094
:100944000403D36001210348FFF700FE08BD00BF84
:10095400000801400010004008B5FFF7F1FD034A0C
:10096400D36823F00403D36008BD00BF0014014022
:100974007047000008B54FF0E02300221A616FF0C1
:100984000400FFF7CDFD084B1B68084AA2FB0323B4
:10099400C3F34753064A1370C3EB431203EB8203BA
:1009A400DA00044B1A8008BD0000002083DE1B43DC
:1009B40022000020200000200E4B1B8803FB00F0C7
:1009C4004FF0E023586100229A611A6942F0010253
:1009D4001A614FF0E0231B6903F00113012BF8D0D7
:1009E4004FF0E0231A6922F001021A6100229A6191
:1009F400704700BF20000020002103E00A4B5B5831
:100A04004350043109480A4B42189A42F6D3094A22
:100A140002E0002342F8043B074B9A42F9D3FFF764
:100A24008BFCFFF7B1FC7047780A00080000002037
:100A3400040000200400002024000020FEE7000041
:100A4400F8B500BFF8BC08BC9E467047F8B500BFB7
:080A5400F8BC08BC9E46704787
:100A5C000204060800000000010203040102030462
:040A6C000607080968
:040A70004D0200082B
:040A7400250200084F
:040A780000A24A048A
:04000005080009FDE9
:00000001FF
