:020000040800F2
:1000000000C000209D12000871040008730400085D
:100010007504000877040008790400080000000057
:10002000000000000000000000000000A10A00081D
:100030007B04000800000000010B0008690A0008AA
:10004000DD090008E1120008E1120008E1120008D1
:10005000E1120008E1120008E1120008E1120008B4
:10006000E1120008E1120008E1120008E1120008A4
:10007000E1120008E1120008E1120008E112000894
:10008000E1120008E1120008E1120008E112000884
:10009000E1120008E1120008E11200081908000846
:1000A000E1120008E1120008E1120008E112000864
:1000B000E1120008E1120008E1120008E112000854
:1000C000E1120008E1120008E1120008E112000844
:1000D000E112000875090008E1120008E1120008A9
:1000E0003D080008E1120008E1120008E1120008D2
:1000F000E1120008E1120008E1120008E112000814
:10010000E1120008E1120008E1120008E112000803
:10011000E1120008E1120008B1090008E11200082C
:10012000E1120008E1120008E1120008E1120008E3
:1001300000000000000000000000000000000000BF
:1001400000000000000000000000000000000000AF
:10015000000000000000000000000000000000009F
:10016000000000000000000000000000000000008F
:10017000000000000000000000000000000000007F
:10018000000000000000000000000000000000006F
:10019000000000000000000000000000000000005F
:1001A000000000000000000000000000000000004F
:1001B000000000000000000000000000000000003F
:1001C000000000000000000000000000000000002F
:1001D000000000000000000000000000000000001F
:0401E0005FF8E0F1F3
:1001F0000348044B834202D0034B03B118477047B6
:100200000400002004000020000000000548064B08
:100210001B1AD90F01EBA301491002D0034B03B104
:100220001847704704000020040000200000000070
:1002300010B5064C237843B9FFF7DAFF044B13B12E
:100240000448AFF300800123237010BD0400002098
:1002500000000000E412000808B5054B1BB1054979
:100260000548AFF30080BDE80840FFF7CFBF00BFEF
:100270000000000008000020E412000882B0002303
:10028000019300932C4A136843F4803313602A4B84
:100290001B6803F400330093019B01330193009B1F
:1002A0001BB9019BB3F5A06FF1D1234B1B6813F46D
:1002B000003F06D001230093009B012B04D002B025
:1002C000704700230093F7E71C4B1A6842F01002B6
:1002D0001A601A6822F007021A601A6842F00202D5
:1002E0001A60A3F580535A685A605A685A605A686F
:1002F00042F480625A605A6822F47C125A605A684A
:1003000042F4E8125A601A6842F080721A600A4B8E
:100310001B6813F0007FFAD0074B5A6822F00302E3
:100320005A605A6842F002025A60034B5B6803F05D
:100330000C03082BF9D1C2E7001002400020024054
:1003400008B5FFF79BFF08BD08B5104B1A6842F0CF
:1003500001021A6059680E4A0A405A601A6822F06F
:10036000847222F480321A601A6822F480221A60A1
:100370005A6822F4FE025A604FF41F029A60FFF797
:10038000DFFF044B4FF000629A6008BD001002408E
:100390000000FFF800ED00E0FEE7000008B5054AA8
:1003A000D36883F00403D3604FF4FA7000F0D6FEF4
:1003B000F5E700BF0014014008B5054AD36883F48F
:1003C0008073D3604FF4FA7000F0C8FEF5E700BF09
:1003D0000008014010B584B04FF4407000F0B8F848
:1003E00000F080FA00F03EFA144B0293144B019394
:1003F00003230093002380221249134800F008FDD4
:100400000446124B0293124B0193022300930023E4
:1004100080221049104800F0FBFC104B0293104B57
:1004200001930023009380220E490F4800F0F0FC56
:100430000E4B1C6000F006FDFEE700BF68000020C8
:10044000F0020020FC1200089D0300082400002098
:10045000F000002004130008B9030008AC000020DD
:10046000F00400200C13000899030008200000206D
:100470007047FEE7FEE7FEE7FEE7704730B5CB7852
:1004800003F00F02964613F0100F03D091F802E02C
:100490004EEA020E0B78FBB10568002301E04261D1
:1004A0000133072B17D801229A40B1F800C032EA75
:1004B0000C0CF5D19C004FF00F0C0CFA04FC25EA53
:1004C0000C050EFA04F42543CC78282CE7D0482CF0
:1004D000E6D10261E4E705600B88FF2B25D945686A
:1004E000002303E0CC78482C1CD00133072B1BD809
:1004F00003F1080C012202FA0CF2B1F800C032EA52
:100500000C0CF2D19C004FF00F0C0CFA04FC25EA05
:100510000C0C0EFA04F444EA0C05CC78282CE1D13A
:100520004261DFE70261E0E7456030BD016170478D
:10053000034B5B69034201D00120704700207047E4
:1005400000040140014B5861704700BF00040140A6
:1005500040F0BF6040F40030014BD860704700BFEE
:1005600000ED00E0C378F3B1144BDB68DB43C3F369
:100570000223C3F1040C0F21D940427802FA0CF295
:1005800083780B40134302781B01DBB20C490A4409
:1005900082F80033037803F01F005B0901228240D8
:1005A00041F823207047037803F01F015B09012203
:1005B0008A402033024941F82320704700ED00E0D3
:1005C00000E100E0014B00229A607047002C0040DF
:1005D000C94389B20182704730B587B004460D46E1
:1005E000038A9BB2CA8823F440531343038283894E
:1005F0009BB2898828896A8901430A4323F4B0534E
:1006000023F00C031343A381A38A9BB2AA8923F48A
:1006100040731343A38201A800F096F81D4B9C423F
:1006200024D0039BA28912F4004F21D103EB830352
:1006300003EB83032A689200B3FBF2F3164AA2FB92
:10064000031252091101642002FB1033A28912F433
:10065000004F16D11B0132330F4AA2FB0323C3F311
:1006600043130B439BB2238107B030BD049BD9E7F2
:1006700003EB830303EB83032A685200B3FBF2F31B
:10068000DCE7DB003233044AA2FB0323C3F342134B
:100690000B43E7E7003801401F85EB5129B18389FF
:1006A0009BB243F400538381704783899BB223F448
:1006B00000539BB283817047C1F3421C01F01F01BC
:1006C00001238B40BCF1010F08D0BCF1020F07D011
:1006D00014303AB102681343036070470C30F8E7F6
:1006E0001030F6E7026822EA030303607047C1F3A3
:1006F000421201F01F0C012303FA0CF3012A0FD060
:10070000022A11D0828A92B21340090A012202FA07
:1007100001F1028892B20A4053B15AB900207047E1
:10072000828992B21340F0E7028A92B21340ECE75A
:100730000020704701207047090A01238B409BB2BB
:10074000DB439BB20380704710B4274B5B6803F018
:100750000C03042B25D0082B26D0002B41D1234B92
:100760000360214A5368C3F30313214CE15C03681F
:10077000CB4043605168C1F30221615C23FA01F16F
:1007800081605168C1F3C221615CCB40C360526893
:10079000C2F3813217498A5CB3FBF2F3036110BCE8
:1007A0007047124B0360DCE70F4A53685268C3F38B
:1007B0008343023312F4803F04D10F4A02FB03F358
:1007C0000360CEE7084A526812F4003F04D00A4A98
:1007D00002FB03F30360C4E7044A02FB03F3036074
:1007E000BFE7024B0360BCE70010024000127A0032
:1007F000181300081413000800093D0021B1054A30
:100800009369034393617047024A936923EA0003A3
:10081000936170470010024008B52020FFF788FE62
:1008200000B908BD044AD36883F48073D3602020E4
:10083000FFF788FEF5E700BF0008014008B54FF458
:100840000040FFF775FE00B908BD054AD36883F480
:100850008073D3604FF40040FFF774FEF4E700BFED
:100860000008014070B582B001212420FFF7C6FFC7
:1008700010238DF807304FF48075ADF80450032332
:100880008DF8063001AE0C4C31462046FFF7F6FDE0
:1008900029462046FFF74AFE0425ADF8045004F52A
:1008A000406431462046FFF7E9FD29462046FFF720
:1008B0003DFE02B070BD00BF0008014000B583B02E
:1008C00025238DF8043003238DF8053000238DF89F
:1008D000063001238DF8073001A8FFF743FE03B06F
:1008E0005DF804FB30B587B0012144F20400FFF746
:1008F00085FF4FF40073ADF8043018238DF80730EE
:1009000003238DF8063001AD194C29462046FFF728
:10091000B5FD4FF48063ADF8043004238DF8073043
:1009200029462046FFF7AAFD4FF4E1330293002346
:10093000ADF80C30ADF80E30ADF81030ADF8143025
:100940000C23ADF8123004F5405402A92046FFF7FD
:1009500043FE012240F225512046FFF7ADFEFFF78E
:10096000ADFF01212046FFF799FE07B030BD00BF63
:100970000008014008B540F225510B48FFF7B7FECB
:1009800000B908BD094AD36883F48073D36002F5C7
:100990004062D36883F00403D36040F225510248DB
:1009A000FFF7CAFEEDE700BF003801400008014034
:1009B00008B5084AD36883F48073D36002F54062B7
:1009C000D36883F00403D36001210348FFF700FEDE
:1009D00008BD00BF000801400010004008B5FFF747
:1009E000F1FD034AD36823F00403D36008BD00BFC0
:1009F000001401404FF0500383F31188BFF36F8F51
:100A0000BFF34F8FFEE7000006480068006880F3E0
:100A1000088862B661B6BFF34F8FBFF36F8F00DFF8
:100A200000BF000008ED00E0704700BF4FF080718C
:100A300040F8041C22F0010240F8082C034A40F858
:100A40000C2C40F8203C4038704700BFF5090008E6
:100A50004FF0E02300221A619A61024A5A6107228C
:100A60001A6170473F19010008B54FF0500383F336
:100A70001188BFF36F8FBFF34F8F00F00DFA28B1CD
:100A80004FF0E0234FF08052C3F8042D002383F38E
:100A9000118808BD000000000000000000000000F8
:100AA000074B19680868B0E8F00F80F30988BFF3B6
:100AB0006F8F4FF0000080F311884EF00D0E7047DD
:100AC00020000020704700BF08B54FF0E023D3F8A6
:100AD000202D42F47F02C3F8202DD3F8202D42F0C0
:100AE0007F42C3F8202D0024C3F81C4DFFF7B0FF50
:100AF000024B1C60FFF788FFFFF77CFF000000201F
:100B0000EFF30980BFF36F8F0D4B1A6820E9F00FE8
:100B1000106008B54FF0500080F3118800F038FBEA
:100B20004FF0000080F31188BDE80840196808689C
:100B3000B0E8F00F80F30988BFF36F8F704700BFF4
:100B400020000020704700BF4FF0500383F311884E
:100B5000BFF36F8FBFF34F8F0B4A136801331360DE
:100B6000012B00D070474FF0E023D3F8043D13F081
:100B7000FF0FF7D04FF0500383F31188BFF36F8F4F
:100B8000BFF34F8FFEE700BF00000020094B1B683A
:100B900043B94FF0500383F31188BFF36F8FBFF356
:100BA0004F8FFEE7013B034A13600BB983F31188B3
:100BB000704700BF0000002001207047074B1B68F2
:100BC0001B6823B9064B4FF0FF321A607047034B86
:100BD0001B68DB681A68024B1A6070471C0700200C
:100BE000F80600202DE9F04106461F460698DDF87C
:100BF0001C80089C256B02F18042013A05EB8205BE
:100C000025F0070571B10B4600210F2907D85A5C62
:100C100004EB010C8CF834200AB10131F5E7002314
:100C200084F843301F2800D91F20E062201D00F007
:100C3000FBFA04F1180000F0F7FA24616462E36A39
:100C4000C3F12003A3613B463246216B2846FFF7E0
:100C5000EDFE2060B8F1000F01D0C8F80040BDE8FB
:100C6000F08100002DE9F04104460D461B4B1E6843
:100C70001B4B1F681B4BD3F800801B4B18680430BC
:100C800000F0FBFAB4F1FF3F0BD03444164B196867
:100C90004C60A64216D90431404600F0D4FABDE8B3
:100CA000F081002DF1D0114B59680F4A1268916004
:100CB0008C68D460101D6060886053611A680132CE
:100CC0001A60ECE70431384600F0BDFA084B1B68A7
:100CD000A342E4D9064B1C60E1E700BF00070020F7
:100CE0001C07002018070020200000203C070020DF
:100CF000F806002038B5002407E0C4EBC4029300D6
:100D00000B48184400F093FA01341F2CF5D9094D13
:100D1000284600F08CFA084C204600F088FA074874
:100D200000F085FA064B1D60064B1C6038BD00BF05
:100D3000900700207407002058070020200700209B
:100D40001C0700201807002010B50446FFF7FCFE22
:100D5000294A136801331360284B1B684BB1284A9A
:100D600012685AB9DA6AE36A9A4207D8234B1C60C0
:100D700004E0224B1C601368012B39D0214A136810
:100D800001331360E36A204A1268934201D91E4A74
:100D900013601E4AC3EBC30302EB83035B68A360CB
:100DA0009868E060211D41609960E36AC3EBC3016C
:100DB00002EB8100606152F821100131C3EBC303E3
:100DC00042F82310FFF7E2FE0D4B1B687BB10B4B83
:100DD0001B68DA6AE36A9A4209D24FF0E0234FF0C7
:100DE0008052C3F8042DBFF34F8FBFF36F8F10BD38
:100DF000FFF780FFC2E700BF14070020200000209B
:100E0000100700200C070020080700209007002092
:100E100030B587B00B9D0C9C74B16DB12563002576
:100E20000395029405AD01950A9D0095FFF7DAFE42
:100E30002046FFF789FF01E000230593059807B0DE
:100E400030BD000008B5FFF7B7FE012809D0E0B9B2
:100E50004FF0500383F31188BFF36F8FBFF34F8FB1
:100E6000FEE74FF0500383F31188BFF36F8FBFF39A
:100E70004F8F064B4FF0FF321A60054B01221A606C
:100E8000044B00221A60FFF71FFE08BDF806002081
:100E900010070020000700204C4B1B68002B40F07F
:100EA0008C8070B54A4B1C6801341C60A4B1494B5E
:100EB0001B68A3421DD90020474B1B68DB6AC3EBAC
:100EC000C3039A00454B9B58012B00D90120444B8A
:100ED0001B68002B77D170BD424A1168424B1868DD
:100EE00010601960414A136801331360FFF766FE12
:100EF000DDE7002036E0374B4FF0FF321A60DBE7CA
:100F0000344B1A60D8E7566042E0002199621168BC
:100F100001391160DA6A364909688A4201D93449CF
:100F20000A602E49C2EBC2024FEA820C8C44DCF804
:100F300004209A609668DE6075609560DA6AC2EB9C
:100F4000C20C4FEA8C056E185E614D5901354FEAAF
:100F50008C0C41F80C50DA6A1F4B1B68DB6A9A4212
:100F600000D901201F4B1B681B68002BC3D01D4BF1
:100F70001B68DB68DB685A689442C1D35A69DD6834
:100F800099686960DE688E6051681D1DA942BAD0FB
:100F9000002159611168013911609A6A002AB9D09B
:100FA0001E6AD96971601E6A8E6003F11801D2F859
:100FB00004C08C45A9D15660A7E70E4A13680133D7
:100FC000136000207047012085E700BFF006002075
:100FD00000070020F80600202000002090070020D5
:100FE000F40600201C07002018070020FC06002043
:100FF0000807002004070020024A13680133136029
:10100000704700BFF006002010B5FFF79DFD4B4B69
:101010001B6843B94FF0500383F31188BFF36F8F00
:10102000BFF34F8FFEE7454B1A68013A1A601B6801
:10103000002B7DD1424B1B682BB9002479E0506016
:1010400014E0546021E000233E4A1268002A4AD08E
:101050003C4BDB68DB689A6A186AD9694160186A98
:101060008860546803F118018C42E8D0002199622D
:101070001168013911605A69D86899684160DC6863
:101080008C605168181D8142DBD0002159611168C4
:1010900001391160DA6A2C4909688A4201D92A4962
:1010A0000A602A49C2EBC20201EB820252689A60CE
:1010B0009468DC6060609060DA6AC2EBC20001EBA9
:1010C00080045C6151F820000130C2EBC20241F89B
:1010D0002200D96A1E4A1268D26A9142B4D91D4AC6
:1010E00001211160B0E70BB1FFF768FD1A4B1C68D6
:1010F0003CB9184B1C68012C0FD0002419E0013CAE
:1011000007D0FFF7C9FE0028F9D0124B01221A6060
:10111000F5E7114B00221A60EBE74FF0E0234FF0A8
:101120008052C3F8042DBFF34F8FBFF36F8F00E0E1
:101130000024FFF72BFD204610BD00BFF006002065
:101140001407002020070020080700209007002037
:1011500020000020F40600200407002010B550B93C
:101160004FF0E0234FF08052C3F8042DBFF34F8FB0
:10117000BFF36F8F10BD0446FFF73EFF00212046EE
:10118000FFF770FDFFF740FF0028F3D1E8E700000C
:10119000204B1B681BB1204B01221A6070471E4B6D
:1011A00000221A601D4B1B68C3EBC3018A001C4957
:1011B0008A585AB90BB1013BF6E74FF0500383F35D
:1011C0001188BFF36F8FBFF34F8FFEE70846C3EB65
:1011D000C3018A000244516849685160C3EBC30CE3
:1011E0004FEA8C020832024491420BD0C3EBC30297
:1011F00091000B4A0A445268D1680A4A1160074AB2
:10120000136070476246910002460A44D1685160FB
:10121000ECE700BFF0060020F406002008070020DD
:10122000900700202000002000230361704700F198
:10123000080343604FF0FF328260C3600361806146
:1012400000230360704730B40D68B5F1FF3F12D042
:1012500000F108031C465B681A68AA42FAD9636861
:101260004B608C606368996061600861036801335A
:10127000036030BC70470469F1E703698168426824
:101280004A60816891605A68824205D000220261FA
:1012900018680138186070475960F7E7002103E0CB
:1012A0000A4B5B584350043109480A4B42189A4292
:1012B000F6D3094A02E0002342F8043B074B9A4266
:1012C000F9D3FFF741F8FFF785F8704730130008AE
:1012D000000000200400002004000020100B00206B
:1012E000FEE70000F8B500BFF8BC08BC9E4670479A
:0C12F000F8B500BFF8BC08BC9E46704773
:1012FC005461736B310000005461736B3200000059
:10130C0049646C650000000002040608000000003F
:0C131C0001020304010203040607080993
:04132800590200085E
:04132C003102000882
:04133000AAAAAAAA11
:040000050800129D40
:00000001FF
